:0200000280007C
:10000000882C0720550A0800510A0800510A0800E8
:10001000510A0800510A0800510A080000000000B7
:10002000000000000000000000000000510A08006D
:10003000510A080000000000510A0800510A080097
:10004000510A0800510A0800510A0800510A080024
:10005000510A0800510A0800510A0800510A080014
:10006000510A0800510A080000000000C5080800F5
:10007000D9080800ED080800010908000000000088
:1000800000000000C9010800510A0800510A0800D8
:10009000510A0800510A0800510A0800510A0800D4
:1000A000510A080000000000510A0800510A080027
:1000B000510A0800510A0800510A0800510A0800B4
:1000C000510A0800510A0800510A0800510A0800A4
:1000D000510A0800510A0800510A0800510A080094
:1000E000510A0800510A0800510A0800510A080084
:1000F000510A080010B5054C237833B9044B13B1ED
:100100000448AFF300800123237010BDF00A0720DC
:10011000000000001C8D08000C4B43B10C4810B5CA
:100120000C49AFF300800C48036823B910BD0A489E
:10013000036833B97047094B002BF7D0BDE8104076
:100140001847064B002BF5D0184700BF00000000F1
:100150001C8D0800F40A07201C8D08000000000018
:100160002DE9F04180B90C469046002A0FDD8F182A
:10017000084E094D306821462B6898470134BC422F
:10018000F8D14046BDE8F0814FF0FF38F9E78046EE
:10019000F7E700BF5C0C0720540C0720436913F0FD
:1001A000020F1DBFC1F30801C1610020012070478B
:1001B000436913F0010F05D08369C3F308030B6093
:1001C000002070470120704700B583B001220DF177
:1001D00007011048104B984772B6BFF35F8F00229B
:1001E0000E4B1A700E4B1B789DF807100D4AD15418
:1001F0009B2B0BD001330A4A13700122074B1A7054
:10020000BFF35F8F62B603B05DF804FB0022044BBE
:100210001A70F2E700800940A102080038010720A7
:10022000A80B07200C0B072008B501460148024B1C
:10023000984708BDF4890800C115080008B50146B3
:100240000148024B984708BDF88908009915080035
:100250000138022815D82DE9F0410E4614469AB10E
:100260000D46DFF838800C4FD8F8000015F8011B58
:100270003B68984700280ADBA81B013CF4D1BDE885
:10028000F0814FF0FF3070471046BDE8F0814FF02D
:10029000FF30BDE8F08100BF580C07205C0C072040
:1002A000002A51D02DE9F04F83B005460C46924606
:1002B0008A44264FDFF8A890254E1DE02146384697
:1002C000C8470028FAD121E09B46DFF8988001A9B1
:1002D0005846C0470028FAD1019B237019E09B467D
:1002E000DFF8808001A95846C0470028FAD1019B59
:1002F00023700134544523D000230193BD42DDD047
:10030000144B9D42E0D0144B9D42E8D0134B9D42CC
:100310000BD0B542EDD1DFF84C8001A93046C04783
:100320000028FAD1019B2370E3E79B46DFF8348075
:1003300001A95846C0470028FAD1019B2370D8E78D
:10034000002003B0BDE8F08F0020704700080E4089
:1003500000400A400080094000C0094000000A40F7
:10036000AF030800B101080010B4AC2303600B68B0
:100370004A68B3FBF2F31B095C1E4FF6FE7294420F
:100380000BD803628B68436040F20223C0F820312F
:1003900050230360002010BC70470120FBE7436935
:1003A00013F0020F1ABFC16100200120704743699A
:1003B00013F0010F1DBF83690B70002001207047EF
:1003C000F0B583B004460D4600230193204B9842BC
:1003D0000DD0204B984212D01F4B984219D01F4B82
:1003E0009C4220D01E4B9C4227D003B0F0BD1F463C
:1003F0001C4E29463846B0470028FAD1EFE71F4681
:10040000194E01A93846B0470028FAD1019B2B703C
:10041000E8E71E46144C01A93046A0470028FAD14F
:10042000019B2B70E1E71E460F4C01A93046A04707
:100430000028FAD1019B2B70D7E71E460A4C01A970
:100440003046A0470028FAD1019B2B70CDE700BFB2
:1004500000080E400080094000C0094000000A402A
:1004600000400A40AF030800B101080070B50C4617
:100470001E4B98420DD01E4B984213D01D4B9842F4
:1004800019D01D4B98421FD01C4B984225D00020FC
:1004900070BD1E461A4D21463046A8470028FAD1A5
:1004A000012070BD1E46174D21463046A847002842
:1004B000FAD1012070BD1E46124D21463046A84794
:1004C0000028FAD1012070BD1E460E4D214630464F
:1004D000A8470028FAD1012070BD1E46094D2146CB
:1004E0003046A8470028FAD1012070BD00080E4010
:1004F0000080094000C0094000000A4000400A4056
:100500009F0308009D01080030B585B00820124DFA
:10051000A847124C124B1C60124A134B1A60134A24
:10052000134B1A60134B01934FF4165302934FF47D
:10053000006303930820A84701A920460E4B984763
:100540000E4D2B68002198680D4CA0472B680021A8
:100550005868A04705B030BDFD09080000080E40EE
:100560005C0C07206D040800580C0720C10308002C
:10057000540C072000BD0105690308004001072055
:10058000551C080010B50E480E4B98473E21002020
:100590000D4B98470D4CA0470028FCD00C4B9847BA
:1005A0000C4A0D4B9A620D4CA0470028FCD010203D
:1005B0000B4B98470B4B98470148024B984710BD8F
:1005C00000BD0105B100072079090800CD09080028
:1005D000DD090800013F0D2000060E40ED0908006E
:1005E00015090800ED0A080010B54FF40042164B3B
:1005F0005A600B20154CA0470C20A0470D20A047A7
:100600000E20A0474FF060513B20114CA0474FF007
:1006100060515520A0474FF060515620A0470D492A
:100620006820A0470C495C20A0470C4A4FF4407159
:100630000B480C4B98474FF000612B20A0474FF020
:1006400000612A20A04710BD501A0E40FD09080085
:1006500009070800790000280100002801000008AF
:10066000000E0E40D90708004264B1F1805F16D039
:100670000BD849B1B1F1006F05D1036F016F0B4089
:1006800023EA0203036742607047B1F1405FFBD089
:10069000B1F1605FF8D0B1F1205FF4D17047036F22
:1006A00013430367EFE7416412F0010F14BF416683
:1006B000016612F00A0F14BF0162416212F0020FCC
:1006C00007D112F0080F18BFC0F884104161016013
:1006D0007047C0F88010F9E710B4019C416444B938
:1006E000016643B1016542B941630161016010BC1B
:1006F00070474166F5E74165F5E70163F5E7C06CD2
:100700007047806C7047000070B582B00D46430999
:1007100003F5001303F207735C0201F0F043B3F139
:10072000205F31D016D8B3F1006F1BD0B3F1805FDA
:1007300016D100F01F000126864032464FF080514E
:100740002046224B984715F0010F14BF66662666B7
:10075000012017E0B3F1405F21D0B3F1605F1ED0FC
:1007600000200FE000F01F000126864032464FF0C7
:1007700000612046154B984715F0010F14BF6666BF
:100780002666012002B070BD00F01F0101262A4636
:1007900006FA01F120460E4B98473046F2E705F085
:1007A000605200F01F01012605EA06030093C5F31D
:1007B0008003B2F1605F14BF0022012206FA01F14A
:1007C0002046044CA0473046DCE700BF690608001D
:1007D000A7060800D906080070B582B005460E4687
:1007E000144602F0F043B3F1205F27D011D8B3F1E3
:1007F000006F16D0B3F1805F11D10A464FF08051DF
:10080000194B984714F0010F14BF6E662E66012035
:1008100012E0B3F1405F15D0B3F1605F12D0002059
:100820000AE00A464FF000610F4B984714F0010FA1
:1008300014BF6E662E66012002B070BD0B4B984748
:100840000120F9E704F0605204F001030093C4F3BF
:100850008003B2F1605F14BF0022012231462846B6
:10086000034CA0470120E7E769060800A706080037
:10087000D90608002DE9F041044688460E4B9847FA
:10088000054620460D4B9847054013D00C4C04F10B
:10089000600603E0B4420DD010345DB120684045DD
:1008A000F8D161682942F5D0E3689847636825EA82
:1008B0000305EFE7BDE8F081FF0608000307080025
:1008C000AC0B072008B50B210148024B984708BD27
:1008D000000E0E407508080008B50C210148024BB7
:1008E000984708BD00100E407508080008B50D2196
:1008F0000148024B984708BD00120E4075080800D9
:1009000008B50E210148024B984708BD00140E405F
:1009100075080800174A136B23F07003184310631F
:10092000936E13F0080F0AD14FF4006311498A6ED9
:1009300012F0080F03D1013BF9D1012070470D4A95
:10094000136B23F0030343F002031363936E13F05E
:10095000080F0AD14FF4006306498A6E12F0080F9F
:1009600005D1013BF9D101207047002070470020DC
:10097000704700BF00060E40C8B9114A136A090249
:1009800089B223F45C1323F0030343F45C1343F0B4
:1009900001030B431362936E13F0010FFBD0084A5F
:1009A000136A43F09B7343F4803313627047044926
:1009B0000B6A044A1A40044B13430B62704700BF92
:1009C00000060E40FCFFC8FE02003701024B986E85
:1009D00000F48030704700BF00060E404FF0005218
:1009E000014B9A62704700BF00060E40024B986EA2
:1009F00000F00200704700BF00060E402C281ED8F1
:100A00001F280CD8114B9A6901238340934318D0B7
:100A1000012303FA00F00D4B1861002070472038C5
:100A20000A4BD3F808210123834093430BD00123C1
:100A300003FA00F0054BC3F80001002070470120C5
:100A40007047002070470020704700BF00060E402E
:100A5000FEE7000008B51C4B1C4A9A4210D01C4B04
:100A6000194A9A420CD2013B9B1A23F00303043328
:100A70001344164951F8040B42F8040B9A42F9D179
:100A8000144B154A9A420AD2013B9B1A23F00303E6
:100A900004331344002142F8041B9342FBD10F4B53
:100AA00023F0604222F07F020D498A6003F1604327
:100AB000B3F5801F03D28B6843F000538B60094B62
:100AC0009847094B9847FEE7000007201C8D080057
:100AD000F00A0720880C0720F00A07200000080011
:100AE00000ED00E049150800910C08003D4B1B6B20
:100AF00003F00303032B0ED8DFE803F0021C3838A1
:100B0000394B5B6913F0800F14BF4FF400424FF470
:100B1000FA42364B1A60334B1B6B03F07003702B99
:100B200057D0304B1A6B3149C2F302120B68D340D5
:100B30000B6070472B4B1B6A13F0807F03D02C4A4D
:100B40002A4B1A60E7E72B4A284B1A60254B1B6A91
:100B500003F07003102B05D0202BDCD1244A234B4B
:100B60001A60D8E7244A214B1A60D4E71D4B1B6A50
:100B700013F0807F0CD01E4A1C4B1A60194B1B6B64
:100B800003F00303022B16D01C4A184B1A60C2E76D
:100B9000184A164B1A60134B1B6A03F07003102B94
:100BA00005D0202BEAD1124A104B1A60E6E7124A10
:100BB0000E4B1A60E2E70B4A916A926A0B48C1F346
:100BC0000A41036801FB0333D2B2B3FBF2F30360C3
:100BD000A1E7064A13680A49A1FB03135B081360E7
:100BE000704700BF00060E40101A0E403C0107205F
:100BF000001BB70000093D0000127A00001C4E0ED9
:100C0000ABAAAAAA0A4B1B6853B1094B1B681A1856
:100C10000849914208DB1046054A106018467047A3
:100C2000054A034B1A60F0E74FF0FF30704700BFF2
:100C30001C0C0720FC7F0820882C07204FF0FF3079
:100C400070474FF400534B600020704701207047FD
:100C500000207047F0B583B006460F4615461420B5
:100C6000084B984704460023036043608360C360D9
:100C70000361CDE900672A460349044B98472046A3
:100C800003B0F0BDE9150800FC890800F51D080057
:100C90002DE9F04FA1B0344B9847344B98470B20C7
:100CA000334CA0470C20A0470D20A0470E20A047A2
:100CB000304B98471BA8304B984730491BA8304B06
:100CC0009847002843D12F482F4B98472F48304B47
:100CD00098474FF006082F4CA0470546A04782468C
:100CE000A04783462C4F2846B8472C4E1CA3D3E977
:100CF0000023B0472A4D00220023A8474246294C32
:100D0000A04781465046B84715A3D3E90023B04712
:100D100000220023A8474246A04782465846B847CB
:100D20000FA3D3E90023B04700220023A84742467F
:100D3000A047009053464A461B4902A81B4CA047B7
:100D400002A8114B98471A48114B9847C3E71BA8B4
:100D50000D4B9847002021B0BDE8F08FAFF3008025
:100D6000DCB6ADB66DDBE64185050800E905080097
:100D7000FD0908000905080029020800048A080086
:100D8000411E0800088A08003D020800C0D4010086
:100D900001000720F11B0800591008007913080012
:100DA000C10D0800550C0800148A0800F51D080044
:100DB000804F120081F0004102E000BF83F0004349
:100DC00030B54FEA41044FEA430594EA050F08BFE6
:100DD00090EA020F1FBF54EA000C55EA020C7FEAAA
:100DE000645C7FEA655C00F0E2804FEA5454D4EB27
:100DF0005555B8BF6D420CDD2C4480EA020281EAF1
:100E0000030382EA000083EA010180EA020281EA28
:100E10000303362D88BF30BD11F0004F4FEA01317A
:100E20004FF4801C4CEA113102D0404261EB410189
:100E300013F0004F4FEA03334CEA133302D052420F
:100E400063EB430394EA050F00F0A780A4F10104CB
:100E5000D5F1200E0DDB02FA0EFC22FA05F2801805
:100E600041F1000103FA0EF2801843FA05F35941EB
:100E70000EE0A5F120050EF1200E012A03FA0EFC6A
:100E800028BF4CF0020C43FA05F3C01851EBE37194
:100E900001F0004507D54FF0000EDCF1000C7EEBB1
:100EA00000006EEB0101B1F5801F1BD3B1F5001FEF
:100EB0000CD349085FEA30004FEA3C0C04F101040E
:100EC0004FEA445212F5800F80F09A80BCF1004F37
:100ED00008BF5FEA500C50F1000041EB045141EAB9
:100EE000050130BD5FEA4C0C404141EB010111F4BA
:100EF000801FA4F10104E9D191F0000F04BF014665
:100F00000020B1FA81F308BF2033A3F10B03B3F142
:100F100020020CDA0C3208DD02F1140CC2F10C02D2
:100F200001FA0CF021FA02F10CE002F11402D8BF30
:100F3000C2F1200C01FA02F120FA0CFCDCBF41EAFC
:100F40000C019040E41AA2BF01EB0451294330BDCB
:100F50006FEA04041F3C1CDA0C340EDC04F11404A8
:100F6000C4F1200220FA04F001FA02F340EA03007F
:100F700021FA04F345EA030130BDC4F10C04C4F1C5
:100F8000200220FA02F001FA04F340EA03002946A5
:100F900030BD21FA04F0294630BD94F0000F83F4EF
:100FA000801306BF81F480110134013D4EE77FEAD2
:100FB000645C18BF7FEA655C29D094EA050F08BF1E
:100FC00090EA020F05D054EA000C04BF19461046FF
:100FD00030BD91EA030F1EBF0021002030BD5FEA43
:100FE000545C05D14000494128BF41F0004130BD6B
:100FF00014F580043CBF01F5801130BD01F00045BF
:1010000045F0FE4141F470014FF0000030BD7FEA31
:10101000645C1ABF194610467FEA655C1CBF0B462C
:10102000024650EA013406BF52EA033591EA030F43
:1010300041F4002130BD00BF90F0000F04BF00213B
:10104000704730B54FF4806404F132044FF000056E
:101050004FF0000150E700BF90F0000F04BF0021E7
:10106000704730B54FF4806404F1320410F000454D
:1010700048BF40424FF000013EE700BF42004FEA48
:10108000E2014FEA31014FEA02701FBF12F07F43C5
:1010900093F07F4F81F06051704792F0000F14BFC2
:1010A00093F07F4F704730B54FF4607401F0004506
:1010B00021F0004120E700BF50EA010208BF70475D
:1010C00030B54FF000050AE050EA010208BF704752
:1010D00030B511F0004502D5404261EB41014FF4BB
:1010E000806404F132045FEA915C3FF4DCAE4FF0BF
:1010F00003025FEADC0C18BF03325FEADC0C18BFA6
:10110000033202EBDC02C2F1200300FA03FC20FAF6
:1011100002F001FA03FE40EA0E0021FA02F1144443
:10112000C1E600BF70B54FF0FF0C4CF4E06C1CEA58
:1011300011541DBF1CEA135594EA0C0F95EA0C0FCD
:1011400000F0DEF82C4481EA030621EA4C5123EA40
:101150004C5350EA013518BF52EA033541F480116F
:1011600043F4801338D0A0FB02CE4FF00005E1FB22
:1011700002E506F00042E0FB03E54FF00006E1FB6C
:1011800003569CF0000F18BF4EF0010EA4F1FF04AF
:10119000B6F5007F64F5407404D25FEA4E0E6D41EF
:1011A00046EB060642EAC62141EA55514FEAC52000
:1011B00040EA5E504FEACE2EB4F1FD0C88BFBCF57C
:1011C000E06F1ED8BEF1004F08BF5FEA500E50F12D
:1011D000000041EB045170BD06F0004646EA0101F3
:1011E00040EA020081EA0301B4EB5C04C2BFD4EB25
:1011F0000C0541EA045170BD41F480114FF0000E1E
:10120000013C00F3AB8014F1360FDEBF002001F08B
:10121000004170BDC4F10004203C35DA0C341BDC05
:1012200004F11404C4F1200500FA05F320FA04F0D7
:1012300001FA05F240EA020001F0004221F000410B
:1012400010EBD37021FA04F642EB06015EEA430E7E
:1012500008BF20EAD37070BDC4F10C04C4F12005AE
:1012600000FA04F320FA05F001FA04F240EA020061
:1012700001F0004110EBD37041F100015EEA430E32
:1012800008BF20EAD37070BDC4F1200500FA05F252
:101290004EEA020E20FA04F301FA05F243EA0203D1
:1012A00021FA04F001F0004121FA04F220EA0200E0
:1012B00000EBD3705EEA430E08BF20EAD37070BD26
:1012C00094F0000F0FD101F00046400041EB010106
:1012D00011F4801F08BF013CF7D041EA060195F0E8
:1012E000000F18BF704703F00046520043EB0303A2
:1012F00013F4801F08BF013DF7D043EA060370478F
:1013000094EA0C0F0CEA135518BF95EA0C0F0CD099
:1013100050EA410618BF52EA4306D1D181EA0301DF
:1013200001F000414FF0000070BD50EA410606BFD9
:101330001046194652EA430619D094EA0C0F02D11E
:1013400050EA013613D195EA0C0F05D152EA033663
:101350001CBF104619460AD181EA030101F0004181
:1013600041F0FE4141F470014FF0000070BD41F0CA
:10137000FE4141F4780170BD70B54FF0FF0C4CF4A4
:10138000E06C1CEA11541DBF1CEA135594EA0C0FC3
:1013900095EA0C0F00F0A7F8A4EB050481EA030E10
:1013A00052EA03354FEA013100F088804FEA0333F7
:1013B0004FF0805545EA131343EA12634FEA0222C5
:1013C00045EA111545EA10654FEA00260EF0004186
:1013D0009D4208BF964244F1FD0404F5407402D2D8
:1013E0005B084FEA3202B61A65EB03055B084FEA69
:1013F00032024FF480104FF4002CB6EB020E75EB66
:10140000030E22BFB61A754640EA0C005B084FEA8D
:101410003202B6EB020E75EB030E22BFB61A75460A
:1014200040EA5C005B084FEA3202B6EB020E75EB55
:10143000030E22BFB61A754640EA9C005B084FEACD
:101440003202B6EB020E75EB030E22BFB61A7546DA
:1014500040EADC0055EA060E18D04FEA051545EAC9
:1014600016754FEA06164FEAC30343EA52734FEA72
:10147000C2025FEA1C1CC0D111F4801F0BD141EAEB
:1014800000014FF000004FF0004CB6E711F4801F50
:1014900004BF01430020B4F1FD0C88BFBCF5E06F30
:1014A0003FF6AFAEB5EB030C04BFB6EB020C5FEA40
:1014B000500C50F1000041EB045170BD0EF0004E95
:1014C0004EEA113114EB5C04C2BFD4EB0C0541EAC7
:1014D000045170BD41F480114FF0000E013C90E6C4
:1014E00045EA060E8DE60CEA135594EA0C0F08BF88
:1014F00095EA0C0F3FF43BAF94EA0C0F0AD150EA87
:1015000001347FF434AF95EA0C0F7FF425AF104619
:1015100019462CE795EA0C0F06D152EA03353FF441
:10152000FDAE1046194622E750EA410618BF52EABE
:1015300043067FF4C5AE50EA41047FF40DAF52EA92
:1015400043057FF4EBAE12E770B50F4E0F4D761BDF
:10155000B61018BF002405D0013455F8043B984755
:10156000A642F9D10A4E0B4D07F0C2FB761BB6100E
:1015700018BF002406D0013455F8043B9847A64212
:10158000F9D170BD70BD00BFFC8C0800FC8C080058
:10159000048D0800FC8C08000FB410B5074B82B016
:1015A00004AC54F8042B186823468168019401F0B8
:1015B000E5FF02B0BDE8104004B0704740010720CD
:1015C0000FB410B5074B82B004AC54F8042B186864
:1015D00023464168019402F059FE02B0BDE8104074
:1015E00004B0704740010720024B0146186800F024
:1015F00003B800BF400107202DE9F04F01F10B06B1
:10160000162E83B0054640F29E8036F0070600F1A4
:10161000BD80B14200F2BA8000F0DEFAB6F5FC7F80
:10162000C0F08582730A00F0B880042B00F26C8150
:10163000B30903F1390003F1380EC100B84F394442
:101640004C680839A14206D10CE0002A80F2AB8038
:10165000E468A14206D0636823F003039A1B0F2AB3
:10166000F3DD70463C69DFF8CCE2744500F09E8102
:10167000636823F003039A1B0F2A00F38381002A77
:10168000C7F814E0C7F810E080F29180B3F5007F4E
:1016900080F054810122DB0879684FEAA30C1344DF
:1016A00057F8338002FA0CF207EBC30C0A43ACF193
:1016B0000801E160C4F808807A6047F83340C8F850
:1016C0000C40012483109C4094427DD8144206D1E2
:1016D00020F003006400144200F10400FAD007EB8C
:1016E000C009CC468046DCF80C309C4507D15FE150
:1016F000002A80F26D81DB689C4500F059815968B1
:1017000021F003018A1B0F2AF2DDDC68D3F808C040
:1017100046F0010828461E4442F00105C3F8048043
:10172000CCF80C40C4F808C07E613E61C6F80CE0FD
:10173000C6F808E075605A50009300F053FA009B19
:1017400003F108041EE0102920D800F045FA102605
:1017500018230220724F3B445C68A3F108029442B4
:1017600000F02F816368E16823F0030323445A6883
:10177000A66842F00102F16028468E605A6000F0CF
:1017800031FA0834204603B0BDE8F08F00240C2362
:1017900020462B6003B0BDE8F08F40204FF400716D
:1017A0004FF03F0E4AE723445A68E168E0E72344DC
:1017B0005A68284642F001025A60083400F012FAD2
:1017C000204603B0BDE8F08FBC68636823F00308CF
:1017D000B04504D3A8EB06030F2B00F38580DFF898
:1017E0005891504BD9F800201B680132334404EB68
:1017F000080A00F0548103F580530F3323F47F6B04
:101800002BF00F0B5946284600F012FA411C0246F5
:1018100000F0FB80824500F2F680434B1968594482
:10182000196000F04C81D9F8000001301BBFA2EB19
:101830000A0A5144C9F80020196012F0070100F0AB
:101840001481C1F10800C1F580510244083102EB56
:101850000B09C9F30B09A1EB090949462846019375
:10186000009200F0E5F9431C9DE80C0000F0428175
:10187000801A484440F001001968BC424944BA60EB
:101880001960506017D0B8F10F0F40F2FA804FF096
:10189000050C6268A8F10C0020F0070002F00102BC
:1018A00004EB000E02430F286260CEF804C0CEF8AD
:1018B00008C000F216811D4BBC681A68914288BFAF
:1018C00019601B4B1A689142626888BF196022F048
:1018D00003029642A2EB060301D80F2B04DC284634
:1018E00000F080F900244DE746F0010243F00103C7
:1018F000264462602846BE600834736000F072F9C6
:10190000204603B0BDE8F08F142B70D9542B00F2A1
:10191000A280330B03F16F0003F16E0EC1008DE660
:1019200070050720500C0720200C0720480C0720CA
:101930004C0C072078050720780907205A0A042A4A
:101940005BD9142A00F2AE8002F15C01C9005B325F
:1019500007EB010C7958ACF1080C8C4500F088803D
:101960004A6822F00302934273D289688C45F7D10A
:10197000DCF80C307A68E360C4F808C09C60CCF8EE
:101980000C409EE646F0010C42F001012644C4F8EA
:1019900004C028467E613E61C6F80CE0C6F808E047
:1019A0007160E25000F01EF90834EBE67A6888E6D0
:1019B00008F1010818F0030F0CF1080C7FF493AE46
:1019C0002DE0DC68A34208BF02303FF44BAEC9E60D
:1019D0001C4619444A68DB6854F8086F42F001025B
:1019E0004A602846F3609E6000F0FCF8CAE603F106
:1019F0005C0003F15B0EC10020E69A0902F1390197
:101A0000C9003832A4E7BC4254D0BC68626822F0F6
:101A100003025EE759F80839994540F0868010F0D6
:101A2000030F00F1FF30F5D17B6823EA04037B60EC
:101A300064009C423FF6C8AE002C3FF4C5AE1C4289
:101A400040467FF44CAE64001C4200F10400FAD022
:101A500045E68C468CE7B3F5AA7F15D8F30B03F166
:101A6000780003F1770EC100E8E54FF48051EEE60F
:101A700001217B68921001FA02F21A437A606346F0
:101A800079E7012353602AE740F25452934222D867
:101A9000B30C03F17D0003F17C0EC100CEE503F130
:101AA000100BAFE6542A29D81A0B02F16F01C900B6
:101AB0006E324DE7204B196859441960B3E6CAF3FA
:101AC0000B0000287FF4AFAE08EB0B03BA6843F0BD
:101AD00001035360EFE67F204FF47E714FF07E0EDE
:101AE000ACE504F108012846009304F0F7FB009BE5
:101AF0001968E0E601204FF00009BDE6B2F5AA7FC3
:101B000005D8DA0B02F17801C900773220E740F2FC
:101B100054518A4205D89A0C02F17D01C9007C32E9
:101B200016E74FF47E717E2212E77B6880E7F008AB
:101B300006F108030EE600BF200C072070B48607EC
:101B400046D0541E002A41D0CAB2034602E014F126
:101B5000FF343BD303F8012B9D07F8D1032C2ED97A
:101B6000CDB245EA05250F2C45EA054519D926468B
:101B700003F11002103E0F2E42F8105C42F80C5C8C
:101B800042F8085C42F8045C02F11002F2D8A4F1B9
:101B9000100222F00F0204F00F041032032C134441
:101BA0000DD91E462246043A032A46F8045BFAD8A9
:101BB000221F22F003020432134404F003042CB168
:101BC000C9B21C4403F8011B9C42FBD170BC704796
:101BD00014460346C2E700BF014804F06BBE00BFD5
:101BE000700C0720014804F067BE00BF700C07208E
:101BF00030B40C4B0C4C19680C4DD1F8A820D1F81E
:101C0000AC0004FB02F4A2FB052305FB00400132FB
:101C1000034443F10003C1E92A2323F0004030BC10
:101C2000704700BF400107202DF451582D7F954C7F
:101C300038B50023064C054608462360FEF7E2FF50
:101C4000431C00D038BD2368002BFBD02B6038BD6F
:101C5000840C072000290CBF022200224FF480636D
:101C600000F000B82DE9F043614D83B02D680446C3
:101C70000F4690461E4615B1AB6B002B64D0B8F1F1
:101C8000020F06D0B8F1010F00F29F80002EC0F2C3
:101C90009C80636ED80734D52146284604F0B6F8F8
:101CA000216B41B104F14003994202D0284604F06F
:101CB00015FB002323630022B4F90C30A26162609B
:101CC0001A063AD423F44A6323F00303B8F1020F4F
:101CD000A3811DD001AB6A462146284604F0EEFDE3
:101CE000A3891843A081002E32D1009E3046FFF711
:101CF0007BFC074600286BD0A38943F08003A381B7
:101D000028E0A3899905C7D4A06D04F0D3FDC3E7EB
:101D1000002500260120616E04F1430243F0020316
:101D2000A660CE07A38160612260226101D498057C
:101D30003ED5284603B0BDE8F0832169284604F06B
:101D4000CDFAB4F90C30BDE7284604F0C9F896E79F
:101D5000002FCBD0AB6B002B33D0009BB4F90C2001
:101D60009E421CBF42F40062A281B8F1010F04BF81
:101D700042F00102A28192B212F0080327602761AB
:101D800066610ED0D1071AD50023656E764215F034
:101D90000105A661A36009D00025284603B0BDE86F
:101DA000F083A360656E15F00105F5D19305C0D4ED
:101DB000A06D04F081FD284603B0BDE8F083A66065
:101DC000F0E7284604F08CF8C7E74FF0FF35B0E79E
:101DD000DDF80090B14504D04846FFF705FC074602
:101DE00020B9B4F90C304FF0FF3592E74E4683E747
:101DF000400107200EB40146F0B56FF000454FF4E6
:101E000002774FF6FF769CB021AC54F8042B0B4BB5
:101E100002910691186802A923460194ADF8147046
:101E200004950795ADF8166000F0E8F80022029BD3
:101E30001A701CB0BDE8F04003B0704740010720A5
:101E400080EA010C1CF0030F37D110F0030C20F0D6
:101E5000030021F0030150F8042B08BF51F8043BA4
:101E60000ED08CF0030C6FF07F434FEACC0C23FABA
:101E70000CFC51F8043B42EA0C0243EA0C0300BF9D
:101E8000A2F1013C9A4201BF2CEA020C1CF0803FF7
:101E900050F8042B51F8043BF2D04FEA02604FEAAD
:101EA0001222012828BFB0EB036F08BF1B0AF4D031
:101EB00003F0FF03000EC01A704710F0030F0AD0A2
:101EC00010F8012B11F8013B012A28BF9A42F4D0E7
:101ED000A2EB030070474DF8045D50F8042B01F0AD
:101EE000030521F0030151F8043B022D26D04DD803
:101EF00022F07F45B5EB132FA2F1013C2CEA020C36
:101F00000DD11CF0803C08BF51F8043B0AD185EA92
:101F10000205B5EB036F0CD150F8042BE8E74FEA4C
:101F200013235BE03CF07F4C54D10B784FEA1265F1
:101F300054E04FEA126503F0FF034FE04FEA024519
:101F4000A2F1013C4FEA15452CEA020CB5EB134F08
:101F500018D11CF0803C08BF51F8043B07D185EA3A
:101F60000205B5EB034F09D150F8042BE6E75FEA11
:101F70000C4C2FD10B884FEA12452FE04FEA034358
:101F80004FEA12454FEA134328E000BF02F0FF0575
:101F9000B5EB136FA2F1013C2CEA020C0DD11CF041
:101FA000803C08BF51F8043B0AD185EA0205B5EB35
:101FB000032F0AD150F8042BE8E74FEA13630DE032
:101FC00012F0FF0F06D051F8043B4FEA122523F020
:101FD0007F4303E04FF0000020BC704705F0FF0294
:101FE00003F0FF00012828BF904204BF2D0A1B0AFE
:101FF000F4D0A2EB000020BC704700BF2DE9F04FE9
:10200000C3B00C460B9192460F930C9004F040FC29
:10201000036818461A9305F0F3FBA3891990190673
:1020200003D52369002B01F0358000230DF1C80989
:10203000C84615931393149318931B9309931693FF
:10204000179327932693CDF894909AF8003054462E
:10205000EBB1252B02D11AE0252B03D014F8013F58
:10206000002BF9D1A4EB0A058DB1269B279A0133E9
:102070002A44072BC8F800A0C8F8045027922693DA
:1020800000F38A8008F10808099B2B440993237800
:10209000002B00F0898000234FF0FF301A468DF8A6
:1020A000773019460D939B46637804F1010A0A9034
:1020B0000AF1010AA3F12000582800F2B783DFE8F3
:1020C00010F04C03B503B5035403B503B503B503D2
:1020D000B503B503B50359005903B50366001402EF
:1020E000B5032F02A503A503A503A503A503A50317
:1020F000A503A503A503B503B503B503B503B50350
:10210000B503B503B503B503B5038B02D302B5031D
:10211000D302B503B503B503B5031B03B503B5037C
:102120002003B503B503B503B503B5033402B50306
:10213000B5034B02B503B503B503B503B503B5034A
:10214000B503B503B503B50376029E03D302D302EC
:10215000D30263039E03B503B5036803B503750398
:10216000DD018C035E03B503F201B5038700B503FF
:10217000B50332030F9C236818460D9323460028AD
:1021800003F104030F9304DA0D9B5B420D934BF0B4
:10219000040B9AF800308BE725AA0B990C9805F0F0
:1021A00089FE40B9C8466FE7279B23B10C9825AA42
:1021B0000B9905F07FFE0B9B9B8913F0400F099B49
:1021C00018BF4FF0FF330993099843B0BDE8F08F73
:1021D0001BF0200F119340F0AF810F9A1BF0100FEE
:1021E000134640F09A851BF0400F00F096850025BD
:1021F0000123148804320F92002217468DF87720AD
:102200000A994A1C00F010822BF08002079254EACF
:10221000050240F00F82002940F03184002B40F08D
:1022200039851BF001030E9300F06286302342AE25
:1022300006F8413D0A9B0E9A9342B8BF1346089395
:102240000023129317B1089B01330893079B13F0E7
:102250000203109302D0089B02330893079B13F0EC
:10226000840540F010830D9B089AA3EB020BBBF191
:10227000000F40F30883BBF1100F40F3B287279C97
:1022800043462146A8461027269A0C9C0B9D06E043
:10229000ABF1100BBBF1100F03F1080318DD013295
:1022A000AB481031072A2791269283E88100EFDDA1
:1022B00025AA2946204605F0FDFD00287FF47BAFC6
:1022C000ABF1100BBBF1100F4B462799269AE6DCB9
:1022D00045460C46984601329D4B5C44072A27949C
:1022E000269288E8080800F3C3829DF8777008F109
:1022F000080887B10121269B0C440B440DF177029D
:10230000072B27942693C8F80410C8F8002000F380
:10231000CD8308F10808109B7BB10221269B0C4459
:1023200001331EAA072B27942693C8F80410C8F877
:10233000002000F3118408F10808802D00F00483C8
:102340000A9B0E9A9F1A002F37DD102F40F37986D3
:10235000804D42462146B0464FF0100B2E46269B3C
:102360000C9C0B9D04E0103F102F02F1080215DDBC
:1023700001331031072B2791269382E84008F2DDC4
:1023800025AA2946204605F095FD00287FF413AFC5
:10239000103F102F4A462799269BE9DC35460C460C
:1023A0004646904601333C44072B2794269388E801
:1023B000A00000F3708308F10808079BDF0500F117
:1023C0006482269B0E9901330C44072B2794C8F88E
:1023D0000060C8F80410269300F3B38308F10808DE
:1023E000079B5B073BD50D9B089A9D1A002D36DD98
:1023F000102D40F321871026269B0C9FDDF82CB072
:1024000004E0103D102D08F1080816DD0133504A94
:102410001034072B2794269388E84400F1DD25AA81
:102420005946384605F046FD00287FF4C4AE103DFD
:10243000102DC846279C269BE8DC0133444A2C44D7
:10244000072B2794269388E8240008DD25AA0B99FA
:102450000C9805F02FFD00287FF4ADAE279C099B5A
:102460000D9A08998A42ACBF9B185B180993002CFF
:1024700040F0FB820023C8462693E6E511931BF04B
:10248000200340F045811BF0100240F066841BF0F1
:10249000400300F062840F9913460A4604320C8808
:1024A00000250F92A8E600250F9A119316688DF863
:1024B0007750141D002E00F0CD860A9A531C00F0B0
:1024C0001B862946304604F0B5FA002800F00D8737
:1024D000831B0A950E930F94CDF81CB023EAE37387
:1024E000089312959DF87770ACE69AF800300AF1DF
:1024F00001042A2B00F0C287A3F130000928A2466C
:1025000000F2188700231C461AF8013B04EB8404F0
:1025100000EB4404A3F130000928F5D90A94C9E579
:102520004BF0800B9AF80030C2E54BF0100B1BF01B
:10253000200F11933FF451AE0F9C073424F0070392
:1025400003F10802D3E900450F92012354E600BFCE
:102550006C8A08007C8A08001193002A40F0AD873D
:10256000BE4B1BF0200F189340F0E7800F9A1BF032
:10257000100F134640F0D8831BF0400F00F0D483B7
:102580000025043314880F931BF0010F00F0E38043
:1025900054EA050300F0DF8030239DF844208DF8D5
:1025A00078308DF879204BF0020B022324E60122CB
:1025B0001193002311460F98089202681F468DF868
:1025C00077300A931293031DCDF81CB00E918DF84D
:1025D000A0200F9328AE39E61193002A40F084879B
:1025E0004BF0100B1BF0200F40F075840F9A1BF07E
:1025F000100F134640F09D831BF0400F00F09983AD
:10260000B2F900400433E5170F9322462B46002A07
:1026100073F10003C0F298830A999DF877704A1C01
:102620004FF001037FF4F0AD54EA050200F0298277
:10263000CDF81CB0012B00F00E83022B40F09C82E1
:102640004E461898230943EA0573290904F00F023E
:102650000D461C46835C06F8013D54EA0503F1D1A2
:10266000A9EB06030E93E5E51193002A40F03887A5
:102670000F9C1BF0080F04F1070400F0CF8424F036
:10268000070303F108020F921A685B68159214930E
:10269000149B159D23F00044284621464FF0FF323D
:1026A0006F4B05F0E1FF002840F0348428462146B6
:1026B0004FF0FF326A4B05F0B9FF002840F02A8442
:1026C00015A80DC8149905F0A7FF002840F0D4857F
:1026D0009DF8777003231A4608930023614E19462C
:1026E0000A93614B0E92119A2BF080000790129181
:1026F000472AD8BF1E46A5E54BF0080B9AF80030D4
:10270000D6E44BF0100B11931BF020033FF4BBAE4B
:102710000F9C073424F0070303F10802D3E90045B6
:102720000F92002368E51193002A40F0C2864F4BB8
:102730001BF0200F18933FF419AF0F9C1BF0010FF3
:1027400004F1070424F0070303F108020F92D3E910
:1027500000457FF41DAF02234EE59AF800300029B2
:102760007FF4A6AC01222021A2E44BF0010B9AF8E1
:1027700000309DE49AF8003001222B2198E44BF0C0
:10278000200B9AF8003093E44BF0400B9AF800309D
:102790008EE49AF800306C2B03BF9AF801304BF0AE
:1027A000200B0AF1010A4BF0100B81E4002A40F0E3
:1027B0007C861BF0200F40F052841BF0100F40F07D
:1027C00038841BF0400F00F034840F9A13680432F1
:1027D0000F92BDF824201A8037E4782330220F9816
:1027E0008DF879301193031D0F93204B04681893D3
:1027F0004BF0020B8DF8782000250223FCE41193A6
:10280000002A3FF4EFAE8DF87710EBE60020044687
:10281000A3F130001AF8013B04EB840400EB4404FC
:10282000A3F130000928F5D90D9443E41193002A4F
:1028300040F04A86119A002A3FF4B6AC00230121E9
:102840001F4608918DF8A020CDF81CB08DF8773088
:102850000A9312930E9128AEF8E400BF388A08005C
:10286000FFFFEF7F2C8A0800288A08004C8A0800A6
:1028700025AA0B990C9805F01DFB00287FF49BAC52
:10288000C8469DF87770279C33E5119B652B40F374
:102890009A8015A80DC8149905F0B4FE002800F020
:1028A00093810121269BB54A0B440C44072B2794A6
:1028B0002693C8F80410C8F8002000F3C68308F176
:1028C00008081F9B139A279C934203DB079BDD0795
:1028D0007FF586AD269B199901331A9A0C44072B74
:1028E000C8F80020C8F804102794269300F3C48386
:1028F00008F10808139B5E1E002E7FF771AD102EA5
:1029000040F3758522461027269B9D4DDDF830B09B
:102910000B9C05E008F10808103E102E40F32582BC
:1029200001331032072B2792269388E8A000F1DDAF
:1029300025AA2146584605F0BDFA00287FF43BAC95
:10294000C846279A269BE7E70D9B089A9F1A002FF7
:102950007FF7F6AC102F40F3A884894D42462146FC
:10296000B0464FF0100B2E46269B0C9C0B9D04E0AE
:10297000103F102F02F1080215DD01331031072B33
:102980002791269382E84008F2DD25AA29462046B1
:1029900005F090FA00287FF40EAC103F102F4A4645
:1029A0002799269BE9DC35460C464646904601337E
:1029B0003C44072B2794269388E8A00000F39E82CE
:1029C00008F10808BCE4139B012B40F34F8201235C
:1029D000269F1C441F44072F2794C8F800602697A1
:1029E000C8F8043000F35F8208F10808199A01372B
:1029F0001A9B1444072F27942697C8F80030C8F86C
:102A0000042000F35C8208F1080815A80DC8149989
:102A100005F0F8FD139B002840F04181013B013790
:102A200001361C44072FC8F8006026972794C8F881
:102A3000043000F3668108F108081B9A013714443A
:102A400021AB072F27942697C8F80420C8F8003038
:102A50007FF7C4AC25AA0B990C9805F02BFA002837
:102A60007FF4A9ABC846279CBAE425AA0B990C9819
:102A700005F020FA00283FF4FDACFFF79CBBDDF821
:102A80001CB0012B00F07E81022B71D1CDF81CB05F
:102A900000240025D4E525AA0B990C9805F00AFA24
:102AA00000287FF488ABC846279C86E425AA0B99AA
:102AB0000C9805F0FFF900287FF47DABC846279CF1
:102AC00029E40120269B2D4A03440444072B279424
:102AD0002693C8F80400C8F8002040F3D88225AA3D
:102AE0000B990C9805F0E6F900287FF464ABC84612
:102AF0001F99279C29B9139B1BB9079BD8077FF502
:102B00006FAC1998269B0246013322441A9C072B6E
:102B10002792C8F80040C8F80400269300F33184D7
:102B200008F108080029C0F20984139901338C18B0
:102B3000072B27942693C8F80060C8F804107FF785
:102B40004DAC25AA0B990C9805F0B4F900287FF438
:102B500032AB279CC84643E425AA0B990C9805F094
:102B6000A9F900287FF427ABC846279CFFF7E5BBEF
:102B700000240025CDF81CB0494604E0688A08000E
:102B80007C8A08003146E20842EA4572E80804F00F
:102B9000070305461446303354EA050201F8013CA8
:102BA00001F1FF36EED1079AD2077FF559AD302BF0
:102BB0003FF456AD3023023906F8013CA9EB01037E
:102BC0000E930E46FFF736BB1F9900297FF779AFAA
:102BD000129B139A9342A8BF1346002B1F460BDD8E
:102BE000269B3C440133072B279488E8C00026939A
:102BF00000F3FB8208F10808129B002FA8BFDB1B23
:102C0000002B1F4640F3D780102B40F33484BA4D7D
:102C100042462146B0464FF0100B2E46269B0C9C98
:102C20000B9D04E00832103F102F40F3B5800133B4
:102C30001031072B2791269382E84008F2DD25AA60
:102C40002946204605F036F900287FF4B4AA4A4602
:102C50002799269BE7E7002D08BF0A2CC0F090803B
:102C60004E46204629460A22002305F03BFD30321D
:102C700006F8012D2046294600230A2205F032FDE0
:102C800004460D4654EA0503EBD1A9EB06030E9367
:102C9000FFF7D0BA0A9B4E460E93FFF7CBBA5E1EE3
:102CA000002E7FF7CAAE102E40F3E38322464FF08A
:102CB000100B914D0C9C04E0103E102E08F10808FA
:102CC00015DD01371032072F2792269788E8200854
:102CD000F2DD25AA0B99204605F0ECF800287FF4D8
:102CE0006AAA103E102EC846279A269FE9DC144691
:102CF00001373444072F2794269788E860007FF730
:102D00009AAE25AA0B990C9805F0D4F800287FF408
:102D100052AA279C269FC8468FE604321C680025CD
:102D200001230F92FFF768BA1C6804330F93002544
:102D30002AE41C680433E51722460F932B46002A29
:102D400073F10003BFF668AC2D27644265EB4505BF
:102D50008DF877700123FFF753BA0F9900250A46C3
:102D600004320C680F92FFF747BA1446013334441B
:102D7000072B2794269388E860007FF72FABE0E6C7
:102D8000DDF81CB0012342AE3034CDF81CB006F89B
:102D9000414D0E93FFF74EBA35460C4646469046D7
:102DA00001333C44072B2794269388E8A00000F3C6
:102DB000468208F108081F9A139B9A4245DB079B3D
:102DC000D90742D4139B12989A1A1D1A9542A8BF8C
:102DD0001546002D0EDD2699064401312C440729A5
:102DE000C8F800602794C8F80450269100F31682B2
:102DF00008F10808002DB4BF1646561B002E7FF7B9
:102E0000EFAA102E40F3F38222461027269B3A4D5C
:102E1000DDF830B00B9C04E008F10808103E102EDD
:102E2000A3DD01331032072B2792269388E8A000F8
:102E3000F2DD25AA2146584605F03CF800287FF42B
:102E4000BAA9C846279A269BE8E7269B199801331A
:102E50001A990444072B2794C8F80010C8F80400F6
:102E6000269300F3CF8108F10808ABE7079BDA0748
:102E70003FF5ADAD0123269F1C441F44072F279427
:102E8000C8F800602697C8F804307FF7D4AD25AAAB
:102E90000B990C9805F00EF800287FF48CA9C84611
:102EA000279C269FC9E525AA0B990C9805F002F8E6
:102EB00000287FF480A9C846279C269F96E525AA6E
:102EC0000B990C9804F0F6FF00287FF474A9C8460B
:102ED000279C269F99E50F9C073424F0070404F1F2
:102EE0000801D4E900230F9114461D46FFF78FBB5C
:102EF0004E46FFF79FB900BF7C8A080025AA0B99B0
:102F00000C9804F0D7FF00287FF455A9C846279CE9
:102F1000FFF716BA159C22462046149C23462146EC
:102F200005F0A2FB002840F073820A9B0133119B3D
:102F300023F020030E9300F09C81472B00F0D680F5
:102F40004BF480730793149B1F1E159B0893B7BF08
:102F50003B46002303F100472D231093119B662B62
:102F600000F09081462B00F0A48002200E9B23A944
:102F7000452B0ABF0A9B0A9D5D1C8DE82100049128
:102F800020A81FA93B460390089A02910C9801F0D3
:102F90007FFF119B0646672B40F0BA811BF0010FA3
:102FA00000F023827419169A0898179B394605F089
:102FB00029FB002840F02481239BA34206D2302124
:102FC0005A1C23921970239B9C42F9D89B1B139384
:102FD0000E9B472B00F0A280119B652B40F3A7812D
:102FE000119B662B1F9B129300F07181139B129A09
:102FF0001946914200F35D811BF0010F40F0F08112
:1030000022EAE273089367230E921193109B002B20
:103010007DD10A939DF87770FFF714B924F0070467
:10302000236815936368149304F108030F93FFF763
:103030002FBB0F9A136804320F92099A1A60FFF798
:1030400004B8269BAF4DFFF7ADB925AA0B990C9894
:1030500004F030FF00287FF4AEA8C84631E40F9A90
:10306000134604330F93099B1168DD171A462B464C
:10307000C1E90023FEF7E9BF25AA0B990C9804F0DB
:1030800019FF00287FF497A8C846279C32E408F16E
:1030900008082FE540210C98FEF7AEFA0B9A106055
:1030A0001061002800F0148240230B9A5361FEF750
:1030B000BCBF03200A9C23A98DE81100049120A81D
:1030C0001FA90390089A3B4602910C9801F0E0FE7C
:1030D00025460646119B7419462B7FF464AF33785E
:1030E000302B00F087811F9D2C445CE70A9B002B4E
:1030F00008BF01230A9323E730460A9504F080FBBA
:103100000F940E90CDF81CB00346FFF7E7B92D27BA
:1031100000238DF877700A93FFF795B81F9B1A4626
:103120001293033304DB0A9B19469142BFF65EAF4C
:10313000119B023B1193129B9DF84420013B002BF5
:103140008DF88420B4BF2D222B221F93B8BF129B71
:103150008DF88520B8BFC3F10103092B40F31F810F
:103160000DF193000146684C00E0114684FB0352C8
:10317000DD17C5EBA20505EB8502A3EB4202303259
:10318000092D01F8012C2B4601F1FF32EDDC303323
:103190000239DCB2884202F8014C40F292810DF112
:1031A0008601134601E013F8014B834201F8014BFD
:1031B000F9D101339B1A0DF18602134421AA9B1AFF
:1031C000139A1B93012A13440E9340F348810E9BDC
:1031D000199A13440E9323EAE3730893002312937E
:1031E00014E7279C269AFFF776B825AA0B990C9826
:1031F00004F060FE00287EF4DEAFC846279CFBE4A6
:103200002346E3E625AA0B990C9804F053FE002808
:103210007EF4D1AFC8461F9A279CD3E525AA0B9907
:103220000C9804F047FE00287EF4C5AF1F9A139B4C
:10323000C846279C9A1ADDE5269BFFF7FEB825AA0B
:103240000B990C9804F036FE00287EF4B4AFC84603
:10325000279CB0E50A9B3746062B28BF06230A9613
:10326000129608930F94CDF81CB00E93274EFEF7DC
:10327000E9BF06230A9363E62D231F468DF87730B6
:10328000FFF728BA03200A9C23A98DE811000491B6
:1032900020A81FA90390089A3B4602910C9801F0C0
:1032A000F7FD25460646041919E7269B154DFFF73D
:1032B0007EBB199A139B1344129A0E93002A40F373
:1032C000C78023EAE3730893672311939EE6002BDC
:1032D00040F3E1800A9A002A40F0B0801BF0010F11
:1032E00040F0AC8008930E9390E60A9B0F940893ED
:1032F0000E930A90CDF81CB012909DF87770FEF7EF
:10330000A1BF00BF7C8A080067666666608A080005
:10331000119B472B7FF446AE1BF0010F7FF4DAAE12
:10332000239B9B1B13930E9B472B3FF4F7AE1F9BD6
:10333000129300E700200A90FEF7BCBE4F42103106
:1033400035DA10246A4DDDF830B004E008F10808E1
:10335000103F102F2CDD01331032072B27922693BC
:10336000C8F80050C8F80440F0DD25AA0B9958466B
:1033700004F0A0FD00287EF41EAFC846279A269BC5
:10338000E6E725AA0B990C9804F094FD00287EF43A
:1033900012AFC8461F99279A269BFFF7C3BB30225E
:1033A00013448DF887308DF8862022AB06E7504D08
:1033B00001333A44072B88E8A0002792269308F1AE
:1033C00008087FF7B2AB25AA0B990C9804F072FDA0
:1033D00000287EF4F0AEC846279A269BFFF7A5BBCF
:1033E000129B199A13440E936BE7239BEEE5269BE1
:1033F0003F4DBBE4169A0898179B394605F002F931
:1034000000287FF470AEC5F101051F952C44CAE574
:10341000149B384E002BBEBF2D231F468DF87730EE
:103420004FF003031A4608934FF00003A8BF9DF81E
:10343000777019460A93304BFFF754B9129B199ACB
:1034400013440A9A1A4422EAE2730E920893DDE5C5
:10345000129B0E9AC3F101031A441346C3E71BF0F3
:10346000010312937FF4B3AE0E9B23EAE373089338
:10347000CCE51F4D3CE4269B1D4D91E40F9D9AF831
:1034800001302868A24640EAE0700A9028460430DD
:103490000F90FEF70DBE0A9B13B91BF0010F02D06F
:1034A000199B0133CDE701231CE78DF87710FFF757
:1034B00080B98DF87710FFF73AB98DF87710FFF7DC
:1034C0004FB80DF1860379E68DF87710FFF7B2B9A2
:1034D0004FF0FF320C2309920C9A1360FEF774BE72
:1034E0008DF87710FFF7C4B88DF87710FFF778B82C
:1034F0007C8A0800348A0800308A08002DE9F84FD9
:103500004B6E93469C042FD59368126853B30E46B6
:10351000074602F1080919E920045FEA9A0817D062
:103520000024043D01E0A04510D0324655F8041FA8
:10353000384602F077FD431C04F10104F3D1002367
:10354000CBF80830CBF80430BDE8F88FDBF8083052
:103550002AF0030AA3EB0A03CBF8083009F10809A3
:10356000002BD8D10020EAE702F09EFF0023CBF821
:103570000830CBF80430BDE8F88F00BF2DE9F04FDC
:10358000ADB01D468B4690460793069018B1836BED
:10359000002B00F0F380DBF86430BBF90C00DF0790
:1035A00081B202D48E0540F1FC808C040AD4DBF891
:1035B000643040F4005123F40053ABF80C10CBF806
:1035C000643089B2080740F1B380DBF81030002B7B
:1035D00000F0AE8001F01A030A2B00F0B580002342
:1035E0000DF1700AD1460B93039311931093CDF80C
:1035F0003CA0CDF810B098F800304446FBB1252B24
:1036000002D11CE0252B03D014F8013F002BF9D187
:10361000A4EB08059DB1109B119A01332A44072B96
:10362000C9F80080C9F80450119210937ADD002A7D
:1036300040F0B584D146039B10922B44039323782A
:10364000002B00F0E58300204FF0000304F1010897
:103650008DF8373062780646054603464FF0FF3452
:1036600008F10108A2F12001582900F2D982DFE80F
:1036700011F02802D702D7023002D702D702D702B0
:10368000D702D702D702A0008802D702A800B8024A
:10369000D702A601AB01AB01AB01AB01AB01AB01A2
:1036A000AB01AB01AB01D702D702D702D702D702D9
:1036B000D702D702D702D702D702B901D702D70261
:1036C000D702D702D702D702D702D702D702D70232
:1036D0009E01D702D702D702D702D702A201D70292
:1036E000D7025A02D702D702D702D702D702D7028F
:1036F000D702D702D702D70261022202D702D7022D
:10370000D70276022202D702D7027B02D702FC013F
:1037100089011002D202D7029502D702AD00D7026A
:10372000D702350209F10809039B2B44039386E76E
:103730005946069801F0A2FA18BBBBF80C1001F02C
:103740001A030A2B7FF44BAFBBF90E30002BFFF6A8
:1037500046AFDBF86430DB0705D48F0503D4DBF814
:10376000580003F0A9F82B4642465946069800F047
:1037700049FD039003982DB0BDE8F08F02F0B0FB37
:1037800009E7DBF86430D90704D4BBF80C309A059C
:1037900040F1AE844FF0FF33039303982DB0BDE8A2
:1037A000F08FDBF8580003F085F8BBF90C0081B20C
:1037B000FBE607990A460D680432002D079202DAEB
:1037C0006D4243F0040398F8002049E708959E06EF
:1037D00000F15A840799DD060A4600F1EF83580686
:1037E00040F1EC83002701220E88043107914FF04D
:1037F000000100258DF83710611C00F0178123F0BF
:103800008001029156EA070140F01581002C40F03A
:103810005B83002A40F0B68313F00103059300F0A8
:10382000558430230DF1B00B0BF8413D059BA342AD
:10383000B8BF234601930DB101330193029B13F0EE
:103840000203099302D0019B02330193029B13F000
:1038500084030A9340F01582089B019A9D1A002D5B
:1038600040F30F82102D40F38484109BCE46102726
:10387000A146119AC54E1946069C07E001F1020CBB
:1038800001460EF1080E103D102D11DD481C1032BE
:10389000072811928EE8C0001090EFDD002A40F05A
:1038A000D981103D102D11464FF0010CD646EDDCAC
:1038B0004C466146F1462A4407291192C9F8006036
:1038C000C9F80450109100F3EB829DF8375009F1CC
:1038D0000809481C002D40F0DC81099B002B00F0FA
:1038E000F68102210EAB0A44072811921090C9F804
:1038F0000410C9F8003040F3E681002A40F09583B7
:103900000A9B0120802B1146D14640F0E481089BA0
:10391000019D5E1B002E40F3DE81102E40F33C849F
:10392000CC461027A1469A4D069C07E001F1020EF5
:1039300001460CF1080C103E102E11DD481C10320F
:10394000072811928CE8A0001090EFDD002A40F0CB
:103950009B82103E102E4FF0010E1146D446EDDC36
:103960004C46E1463244BEF1070F119289E86000EF
:10397000CDF840E000F3668309F108090EF101007B
:103980007146A8E1089513F0200240F0898313F0F6
:10399000100140F0198313F0400200F015830798DE
:1039A0000A46014604310688002707911FE708955B
:1039B00043F01003E7E7089543F0100307E743F0EF
:1039C000800398F800204BE60025A2F1300118F89A
:1039D000012B05EB850501EB4505A2F13001092915
:1039E000F5D93FE60895002840F0028443F0100323
:1039F0009E0600F13D830799DD060A4600F1F0823C
:103A0000580640F1ED82B1F900600432F7173046F4
:103A100039460792002871F10002C0F25A83611CF6
:103A20009DF837504FF001027FF4E9AE56EA0701E6
:103A300000F04B820293012A00F08A82022A40F0B1
:103A40005A82D3460B98330943EA0773390906F0C3
:103A50000F020F461E46835C0BF8013D56EA070332
:103A6000F1D1AAEB0B030593E0E6002840F0BD83FB
:103A7000990600F15983DA0600F1E5805B0640F112
:103A8000E280079A136804320792BDF80C201A806E
:103A9000B1E5782230210895079D8DF839202A1D3F
:103AA00007923C4A2E680B9243F002038DF83810BF
:103AB000002702229BE60895002899D08DF83760F0
:103AC00096E798F80020002E7FF4CAAD012020264A
:103AD000C6E543F0010398F80020C1E508950028E9
:103AE00040F080832B490B919F0600F1E5820798F7
:103AF000DE06014600F16F825D0640F16C82002710
:103B0000043106880791D80740F1208256EA070160
:103B100000F01C8230218DF8392043F002038DF82B
:103B20003810022263E60895002840F055831A49B0
:103B30000B91D9E7012207981146019202684FF0D4
:103B400000048DF848200246043208958DF837406D
:103B5000059107920DF1480B029300246EE643F0A5
:103B6000400398F800207BE598F800206C2A03BFFA
:103B700098F8012043F0200308F1010843F01003F6
:103B80006EE598F8002001202B2669E58C8A080054
:103B90009C8A08004C8A0800388A08004FF000020E
:103BA00007990895D1F800B08DF837200D1DBBF1AD
:103BB000000F00F0E482671C00F0C382224600215F
:103BC0005846019302F036FF019B002800F0E8827E
:103BD000A0EB0B020795059202939DF83750002445
:103BE00024E698F8002008F101072A2A00F0E9826B
:103BF000A2F130010929B8464FF000043FF632AD7A
:103C000018F8012B04EB840401EB4404A2F1300109
:103C10000929F5D926E543F0200398F800201FE58F
:103C20000895002840F0DB82002A00F0F180012195
:103C30008DF848204FF0000201918DF83720059152
:103C40000DF1480B88E7079A136804320792039A2C
:103C50001A60D0E40FAA04992046FFF74FFC002811
:103C600040F043811099D646119A01F1010C0AE601
:103C70000FAA04990698FFF741FC002840F035810F
:103C8000D14610999DF83750119A481C002D3FF4E9
:103C900024AE01210DF137050A4407281192109036
:103CA000C9F80410C9F8005040F30981002A40F017
:103CB000AF81099B002B3FF423AE02220846D14678
:103CC0000EAB1D921C93014609F1080901300A9BB5
:103CD000802B3FF41CAE059BE41A002C2FDD102C2A
:103CE00040F32082CE461026B24D069FDDF810909C
:103CF00006E0881C19460EF1080E103C102C10DD51
:103D00004B1C1032072B11928EE860001093F0DDEF
:103D1000002A65D1103C102C4FF001001146D64608
:103D2000EEDCF146224407281192C9F80050C9F888
:103D30000440109000F3858009F1080901300599CD
:103D400007280A441192C9F800B0C9F8041010906D
:103D500040F38280002A40F01881029B109258079D
:103D600035D5089B01995C1A002C40F3E780D146B9
:103D7000102C40F30D82102510998F4E069FDDF810
:103D800010B006E0881C194609F10809103C102CF7
:103D900011DD4B1C1032072B1192C9F80060C9F8D5
:103DA00004501093EEDD42BB103C102C4FF001008C
:103DB0001146D146EDDC224407281192C9F8006073
:103DC000C9F80440109051DD002A40F09A81039B0D
:103DD000089A01998A42ACBF9B185B1803934EE086
:103DE0000FAA49463846FFF789FB002840F03E817C
:103DF0001099D646119A481C7FE70FAA59463846B3
:103E0000FFF77CFB60B91099D146119A481CBDE7B9
:103E1000119BDDF810B0002B40F0CA8100231093F5
:103E2000DBF8643013F0010FBBF80C3002D19A05B7
:103E300040F1DD805B063FF5ADAC03982DB0BDE8E9
:103E4000F08F002A40F005810123D146059ACDF874
:103E500070B01D921192109309F10809029B590745
:103E600004D5089B01995C1A002C81DC039B0899FE
:103E700001988142ACBF5B181B18039372BB0023EF
:103E8000D1461093FFF7B7BB0FAA04992046FFF75E
:103E900035FB50BB1099D446119A01F1010E4AE549
:103EA000002A7FF4E5AE9DF83710002900F01A8152
:103EB0000122D14610460DF137011D921C91014699
:103EC00009F10809013008E5029B012A00F09780FA
:103ED000022A0DD1029300260027B2E50FAA049909
:103EE0000698FFF70BFB0028C9D0DDF810B097E764
:103EF000002600270293514600E05946F20842EAA4
:103F00004772F80806F0070307461646303356EAAC
:103F1000070201F8013C01F1FF3BEED1029AD607FE
:103F20007FF59FAD302B3FF49CAD302302390BF869
:103F3000013CAAEB010305938B4677E4039B089AA7
:103F40008A42ACBF9B185B18039398E702224EE4A9
:103F5000002F08BF0A2E51D3D346304639460A22D5
:103F6000002304F0BFFB30320BF8012D30463946F8
:103F700000230A2204F0B6FB06460F4656EA070362
:103F8000EBD16EE50594D34650E40FAA0499069848
:103F9000FFF7B4FA0028A8D1D146119A5EE70FAA1C
:103FA00004990698FFF7AAFA00289ED1D146FFF798
:103FB000BBBB00BF9C8A08008C8A080004311668CD
:103FC00000270122079112E40798002701460431D7
:103FD000066807910BE40E6804310791002792E50B
:103FE00016680432F71707923046394612E5DBF8B7
:103FF000580002F061FCBBF80C301BE7029B0293F7
:1040000001230DF1B00B30360BF8416D05930DE433
:104010000FAA04990698FFF771FA00287FF465AF9C
:104020001099D146119A481C57E40FAA0499069892
:10403000FFF764FA00287FF458AF1099D146119A1F
:10404000481C44E6002A40F0878001201146D146F2
:1040500041E60FAA04990698FFF750FA00287FF46A
:1040600044AF1098D146119A013068E6CB46D7E6A6
:10407000079D073525F0070505F10802D5E9000180
:10408000079206460F46C5E4079D073525F007024F
:1040900002F10801D2E9006707910122FFF7A7BBEF
:1040A000079D073525F0070202F10801D2E90067F4
:1040B00007910022FFF79BBB079D073525F00701FD
:1040C00001F108000790D1E900671CE5D346FFF72E
:1040D000ADBB2D25764267EB47078DF8375001229F
:1040E000FFF78ABB099BB3B911460120D146F2E51F
:1040F000DBF8580002F0E0FB4FF0FF330393FFF7CB
:104100004CBB0FAA04990698FFF7F8F900287FF432
:10411000ECAE119AAAE602220EAB1D921C9301206E
:10412000D146D0E5344DFDE5079A13460433079395
:10413000039B1168DD171A462B46C1E90023FFF7E0
:104140005ABA58460795029303F05AFB002405908B
:104150009DF83750FFF76ABB0FAA04990698FFF73E
:10416000CDF900287FF4C1AE1099D146119A481CB0
:10417000B1E51099119A0131204EFFF79CBB062C36
:1041800028BF0624079505940194DFF874B0E3E492
:1041900010981A4E01300EE68646174DFFF7E2BB27
:1041A00005940795029304469DF83750FFF73EBBF0
:1041B00006980FAA5946FFF7A1F900283FF42EAE42
:1041C0002EE6079998F801200C68043144EAE4745B
:1041D000B8460791FFF744BA8DF83760A7E48DF829
:1041E000376021E58DF837607CE48DF837603FE477
:1041F0008DF83760FFF7FABB9C8A08008C8A0800AC
:10420000608A08002DE9F0410C464FF0000E4FF493
:104210008065064617469846626EE3898989ADF542
:104220008D6D21F002011992ADF80E30E269636ADA
:10423000ADF80C1016A81AA9CDF818E0079209934A
:10424000009104910295059502F030FB43463A46F1
:1042500069463046FFF792F9051E07DB304669468E
:1042600001F0D4FD002818BF4FF0FF35BDF80C3029
:104270005B0603D5A38943F04003A381169802F09F
:1042800017FB28460DF58D6DBDE8F0812DE9F04F47
:104290008B46D9B0496E0693BBF90C3011F0010F73
:1042A000814699B202D1880540F1D683890409D4A8
:1042B000DBF8641043F4005321F40051ABF80C30E8
:1042C000CBF86410174600233E46079304939A46A2
:1042D000059316F8013B0B936BB302F0CBFA0B9BE3
:1042E0001844457815F0080534D0DBF804301A4638
:1042F00012E002F0BFFADBF800301A780133104404
:104300004278120710D5DBF804200AF1010A013ABD
:10431000CBF80030CBF80420002AEADC59464846A6
:1043200003F064F90028E4D037463E4616F8013B16
:104330000B93002BD1D1DBF86430DA0700F19D81BB
:10434000BBF80C309B0500F19881DBF8580002F0B7
:10435000B3FA92E1252B40F082802C467F78731CC3
:10436000782F00F28E81DFE817F07C018C018C0140
:104370008C018C018C018C018C018C018C018C01D5
:104380008C018C018C018C018C018C018C018C01C5
:104390008C018C018C018C018C018C018C018C01B5
:1043A0008C018C018C018C018C018C018C018C01A5
:1043B0008C018C0179008C018C018C018C017701BE
:1043C0008C018C018C018C018C016F016F016F01DC
:1043D0006F016F016F016F016F016F016F018C0140
:1043E0008C018C018C018C018C018C018C018C0165
:1043F0008C016B018C018C018C018C018C018C0176
:104400008C0166018C018C012D018C018C018C01C9
:104410008C018C018C018C018C0124018C018C019C
:104420001B018C018C018C018C018C018C018C0195
:10443000160105018C018C018C01000193008C0197
:104440008C015E018C014601440140018C018C010C
:104450003D018C0136018C018C0124011E46DBF8E4
:104460000430002B40F38383DBF8003016F8012C76
:10447000197891427FF45FAFDBF804200133013AF1
:10448000CBF800300AF1010ACBF8042037464CE79C
:104490000393AC4B0326079300230493DBF804300B
:1044A000002B71DD6B0631D5022E00F00482032E45
:1044B00000F04C81012E00F01981002C08BF01246E
:1044C00015F0010340F05282E80640F1FD821D46DE
:1044D0000BE01A44CBF80020594648461D44E41A24
:1044E00003F084F8002840F0EB829BE80C00A34224
:1044F000EFDB1B1B2244CBF804302544CBF8002013
:10450000039EAA44374610E7CBF8003002F0B2F918
:10451000DBF800301A780133104442781707C3D50E
:10452000DBF804200AF1010A013A002ACBF8042042
:10453000EADC5946484603F059F80028E6D0DBF893
:104540006430DC0704D4BBF80C30980540F1A48239
:10455000059B002B00F08E80BBF80C30590600F153
:104560008980059859B0BDE8F08F777845F004054B
:104570001E46F4E60393734B032607930A23049322
:10458000DBF80430002B8DDC5946484603F02EF84A
:10459000002887D0D3E7039345F0400500267DE748
:1045A000194618A803F0AEF845F04005039001261F
:1045B00074E7039345F40075634B032607931023B8
:1045C00004936BE7039345F001055F4B03260793C4
:1045D0000823049362E703935B4B032607930A23A4
:1045E00004935BE70393022658E7039345F40875A9
:1045F000E2E70393E9E7EF06039374D46E0700F153
:10460000E082EC0700F1CC82A80740F1C982524653
:104610000698D3170168039EC1E9002303460433BB
:104620000693374681E677786C2F00F0B38245F029
:1046300001051E4693E6777845F002051E468EE694
:10464000039345F0010596E704EB840407EB44046B
:10465000303C77781E4682E6777845F010051E4696
:104660007DE6DBF86430D90704D4BBF80C309A053A
:1046700040F185824FF0FF330593059859B0BDE8AE
:10468000F08F039302F0F6F83844437803F0030305
:10469000012BD6D00A2304932A4B03260793FDE669
:1046A0000CAB1846082200210893FDF747FA15F0D5
:1046B0001003099300F0DA810DF12C0800260EAFEB
:1046C00002F0D8F8DBF800301B7803445B781B0756
:1046D00002D4002C40F08082099B23B9C8F8003036
:1046E000059B01330593039E37461EE6002C08BF49
:1046F0004FF0FF34E90640F109810025DBF8002086
:1047000018AF13780132FB5CC3B1DBF8043001351C
:10471000013BAC428BE80C003FF4F2AE002BF0DC26
:104720005946484602F062FF00287FF4E9AEDBF804
:10473000002013780132FB5C002BE6D1002D7FF4C2
:10474000DFAEF8E585790800B17C0800631E262BF2
:1047500094BF0022A4F1270211464FF000080EAFCB
:10476000524688BF27243E468A464346DDF81080DD
:1047700045F45865DBF8000090F800E0AEF12B013D
:104780004D2943D8DFE801F092429242426B6565C1
:1047900065656565655E5E424242424242425858E6
:1047A0005858585842424242424242424242424291
:1047B00042424242422742424242424242425858C8
:1047C0005858585842424242424242424242424271
:1047D00042424242422705F4C061B1F5007F15D143
:1047E0004FF0100825F4007545F4A065DBF80410BF
:1047F00086F800E00139002906F10106CBF8041023
:1048000049DD0130CBF80000013CB3D1E905CDF81A
:1048100010809246984605D5BE4200F29F81BE4266
:104820003FF489AD15F0100400F0E480F61BB044AD
:10483000039EC244374678E5B8F10A0FE6DD25F459
:104840003865D3E7AB4931F91880B8F1080FF6DCC9
:10485000DCE7A84925F4386531F91880C6E7290551
:10486000C4D5B8F1000F03D14FF0080845F4007526
:10487000690500F1EE8025F46075BAF1000F02D0F1
:104880000AF1FF3A0134DBF8041001330139002941
:10489000CBF80410B5DC594648460893049202F060
:1048A000A5FE049A089B0028AED0AFE72906ADD537
:1048B00025F080059AE7002C08BF4FF0FF3415F073
:1048C00001067FF4EDAEEF0640F1188101F0D2FF52
:1048D000DBF800301A78013310444278150711D400
:1048E000DBF804200136013AB442CBF80030CBF8B3
:1048F000042007D0002AE9DC5946484602F076FE3B
:104900000028E3D0B244039E37460EE5069A18AF5E
:104910001568161DA846DBF800301A78591CBA5CD9
:10492000C2B1DBF80420CBF80010013ACBF8042028
:104930001B78013C08F8013B0CD0DBF80430002B5D
:10494000E9DC5946484602F051FE0028E3D04545CF
:104950003FF4F5ADB8EB05053FF4EDAC0023059A47
:1049600006960132059288F80030C9E50CAB18466E
:10497000082200210893FDF7E1F815F010030993D0
:104980007BD04FF00008002C3FF4ADAE00250EAFF9
:1049900001F05EFFA8423FF4D2AD9BE80C0012F894
:1049A000010B6E1CCBF80020089A013B0092414697
:1049B0007855CBF804303A463346484601F0F6FFC6
:1049C000451C3FF4BCAD00286BD1099B002B6CD17A
:1049D000C8F80030B244013C002508F10408DBF8B7
:1049E0000430002B2CDD002CD2D1099B002B7FF44E
:1049F0007AAE75E622463470049B39464846079CD9
:104A0000A047AA0642D46B0700F1D58015F0010239
:104A10003CD1AD073AD5079B48461946364B9942DB
:104A2000049B394600F01B8103F08CF8069A13684A
:104A30000432C3E900010692059B01330593F5E6B4
:104A40005946484602F0D2FD0028CCD0002DCCD0EB
:104A500075E525F4B065C9E6DBF85800039201F06E
:104A600029FFBBF90C30039A99B21FE4069A13464A
:104A70000433D2F80080069320E6069A13460433E6
:104A8000D2F800800693002C80D129E6069A13689C
:104A9000043206921860CFE7DBF8580001F00CFFF3
:104AA00056E5023005D1354699E7B244013C05464A
:104AB00095E7099BB244013C002B8DD000258EE781
:104AC000002D7FF41DAD3AE5069D2346296801229D
:104AD000CDF800B0484601F0D9FA2E1D00283FF469
:104AE0002EAD059B0696039E0133824405933746FF
:104AF0001BE400BFAC8A0800B17C0800069A166867
:104B0000171D354601F0B6FEDBF800201378511C66
:104B100018444378180715D4DBF80430CBF800109C
:104B2000013BCBF804301378013C05F8013B09D078
:104B3000DBF80430002BE5DC5946484602F056FD10
:104B40000028DFD00023AE1B059AB244039E013239
:104B5000069705922B703746FFF7E7BB731E16F8D2
:104B6000011C5A4648461E4603F060FA57E659466D
:104B7000484602F03BFD00283FF476ACDFE4DBF86A
:104B8000580001F099FE4FF0FF330593059859B096
:104B9000BDE8F08FB77845F002050236FFF7DFBBBE
:104BA000069A039E13683746C3F800A013460433E1
:104BB0000693FFF7BABB069A136804320692188070
:104BC0003AE7069A039E13683746A3F800A01346F7
:104BD00004330693FFF7A9BB01F03AFE86423FF487
:104BE000AEAC9BE80C0012F8010B013BCBF80020A7
:104BF000089A751C00924146CBF804303A46B855E5
:104C00002B46484601F0D2FE421C3FF498AC98B1C6
:104C1000023008BF2E462ED1DBF80430002B3FF7C0
:104C20004FAD5946484602F0E1FC00283FF448AD3C
:104C3000002E7FF484AC4FE5C8F8000001F0FAFDC7
:104C4000064678B1002D3FF447AD3D4415F8011DEF
:104C50005A46484603F0EAF9BD42F7D13CE503F075
:104C600017F9E3E6099BAA44013C002BD4D108F1D3
:104C700004081E46D0E7D8F80000DFE738B5304B0F
:104C8000054618680C4610B1836B002B38D0B4F978
:104C90000C2093B218070CD52069A8B113F00102BB
:104CA0001ED000226369A2605B42A361F0B10020C4
:104CB00038BDD9063BD5580725D4206942F00803F2
:104CC000A3819BB20028E9D103F42072B2F5007FE2
:104CD000E4D02846214601F01FFEA3892069DDE7C4
:104CE000990758BF6269A2600028E0D1B4F90C307E
:104CF0001A06DDD543F04003A3814FF0FF3038BDE5
:104D000001F0EEF8C3E7216B51B104F14003994281
:104D100004D0284601F0E2FAB4F90C200023236302
:104D20000023206922F0240284E80900C6E7092351
:104D300042F040022B604FF0FF30A28138BD00BF2F
:104D400040010720024B13B1024800F005B870473C
:104D500000000000595F0800002301461A4618466B
:104D600003F0A2BA2DE9F04F03690F6983B09F42A7
:104D700000F38880013F01F1140600F1140A56F88F
:104D800027305AF827200133B2FBF3F8BB00009319
:104D900006EB030953440193B8F1000F3BD0002305
:104DA000B4461C46D6465CF8042BDEF800501FFAC9
:104DB00082FB08FB0B33120C4FEA134B08FB02BBC0
:104DC0009AB2A21AABB21FFA8BF41A44C4EB154480
:104DD00004EB224492B242EA0442E1454EF8042B2D
:104DE0004FEA24444FEA1B43DDD2009B5AF80330BC
:104DF0008BB9019C231F9A450CD254F8043C4BB943
:104E0000A4F1080302E01A68043B1AB99A4507F1B5
:104E1000FF37F8D30761044602F02AF900282DDB9A
:104E20005546002308F1010856F8041B28688AB289
:104E30009A1A0B0C81B20A44C3EB104303EB2243D2
:104E400092B242EA0342B14545F8042B4FEA2343AC
:104E5000EAD25AF827200AEB87037AB91A1F92453B
:104E60000BD253F8042C42B9083B02E01A68043B09
:104E70001AB99A4507F1FF37F8D32761404603B0C6
:104E8000BDE8F08F002003B0BDE8F08F0000000007
:104E90002DE9F04F056C9BB0044692469B46279E39
:104EA0004DB10123426C29469340AB606A6001F02A
:104EB00007FF00232364BBF1000F5D4635DB0023B1
:104EC00033609D4BAB4315D000220023504659461A
:104ED00003F098FB804600282DD00123269A13600A
:104EE000289B002B00F0BD809448186001381BB04F
:104EF000BDE8F08F42F20F73269A1360BAF1000FEB
:104F00000DD1C5F3130555B9289B8D48002BEED064
:104F100000F10803289A13601BB0BDE8F08F289BAE
:104F20008848002BE3D0C31CF4E701232BF0004595
:104F30003360AB46C5E718AA19AB019200935246FD
:104F40005B46204602F03EF92B0D814671D050465B
:104F5000CBF3130242F07F51189FA3F2FF36CDF836
:104F6000508041F440110022774BFBF727FF6CA3E0
:104F7000D3E90023FCF7D6F86BA3D3E90023FBF7B2
:104F80001FFFCDE902013046FCF766F868A3D3E9BC
:104F90000023FCF7C7F802460B46DDE90201FBF7E8
:104FA0000FFFCDE9040103F075FB002202900023FE
:104FB000DDE9040103F030FB002840F06D81029D23
:104FC000162D00F257816149524601EBC5015B463F
:104FD000D1E9000103F03EFB002800F0BE816B1E0A
:104FE000029300230E93BF1B7B1E089300F14E819A
:104FF00000230A93029B002BC0F23F81089A0D9375
:1050000011461944002308910C93249B092B2AD89C
:10501000052B40F358860025043B2493249B023B38
:10502000032B00F23F86DFE813F0CE03C302D9035F
:105030005B04189F199E3E4406F23243202B40F336
:105040008781C3F1400306F212409D402AFA00F026
:105050002843FBF7F1FF0123013E1493A1F1F871FE
:1050600081E73B4843E7002120466164259101F038
:1050700001FE4FF0FF3307930F930123259A04900D
:10508000206424920B93199B002BC0F2D380029AC8
:105090000E2A00F3CF802D4B03EBC203D3E900238C
:1050A000CDE90823259B002BC0F2B483DDE9085627
:1050B00050462A4633465946FCF75EF903F0EAFAB1
:1050C0008046FBF7C9FF2A463346FCF72BF8024619
:1050D0000B4650465946FBF771FE079E049F08F1A8
:1050E0003005012E3D7002460B4607F1010564D0E4
:1050F0000022184BFCF716F80022002306460F4644
:1051000003F080FA002840F08280CDF828904FF01C
:10511000000ADDE908894FF0000B0B9429E000BF7D
:1051200061436F63A787D23FB3C8608B288AC63FAD
:10513000FB799F501344D33F0000F07F698A080039
:10514000D08A0800DC8A08000000F83F188B0800AD
:10515000688A0800000024400022814BFBF7E2FF30
:1051600052465B4606460F4603F04CFA002840F0D4
:10517000BA8342464B4630463946FCF7FDF803F009
:1051800089FA0446FBF768FF42464B46FBF7CAFF25
:1051900002460B4630463946FBF710FE04F1300656
:1051A00005F8016B049E079FAE1BBE4202460B46EC
:1051B000D2D1A046DDF828900B9C10461946FBF78B
:1051C000FFFD06460F4602460B46DDE9080103F0E7
:1051D00023FA48B9DDE9080132463B4603F012FAEA
:1051E000A8B118F0010F12D015F8018C6B1E049AAB
:1051F00004E09A4200F0028413F8018DB8F1390FEF
:1052000003F10105F5D008F1010883F80080494653
:10521000204601F055FD0022029B2A70269A013398
:105220001360289B002B00F09F8304981D601BB027
:10523000BDE8F08F0B9A002A3ED0249A012A40F351
:105240001183079B0C9A5F1EBA42C0F29083D71B52
:10525000079B002BC0F28C840A9D079B0A9A0121B0
:105260001A440A92089A20461A44089201F0C4FD92
:10527000064623E001230E93B5E600230A9A0D9318
:10528000029BD21A5B420A920C93BEE6C7F101035D
:105290000A9300230893ADE6029D2846FBF7DCFE47
:1052A00002460B46DDE9040103F0ACF900287FF467
:1052B00086AE6B1E029382E60AADE0CD002D0CDDBA
:1052C000089900290B4608DDA942A8BF2B460A9A77
:1052D000ED1AD21ACB1A0A9208930C9BD3B10B9BEE
:1052E000002B00F0B882002F10DD31463A462046F0
:1052F00001F01EFE4A4601460646204601F086FDA4
:10530000034649462046994601F0DAFC0C9BDA1B1D
:1053100040F0A2820121204601F06EFD0D9B8046E7
:10532000002B1FDD01461A46204601F001FE249B9A
:105330008046012B40F3558200230C93D8F810309F
:1053400008EB8303186901F007FDC0F1200013E0AA
:10535000C3F120050AFA05F07BE60E9043E600BF94
:1053600000002440249B012B40F3858200230C93F2
:105370000D9B0120002BE1D1089A104410F01F0072
:1053800000F0A180C0F12003042B40F386840A9B27
:10539000C0F11C0003440A931346034405440893D8
:1053A0000A9B002B05DD49461A46204601F010FEF7
:1053B0008146089B002B05DD41461A46204601F038
:1053C00007FE80460E9B002B40F08680079B002B3B
:1053D00040F364820B9B002B00F09880002D05DDCC
:1053E00031462A46204601F0F3FD06460C9B002B71
:1053F00040F036830896079B049A013BD3180B9321
:1054000017460AF00103C246DDF820B00C9351465E
:105410004846FFF7A7FC31460546484601F028FEFE
:105420005A4607905146204601F03EFEC26880462B
:1054300005F13003002A40F02982014648460A93CC
:1054400001F016FE41460890204601F039FC089A0A
:105450000A9B32B9249921B90C9A002A00F0EE83F4
:10546000249A07990029C0F29F8205D1249919B97D
:105470000C99002900F09882002A00F305830B9A0A
:1054800007F1010897423B70454600F00B834946FF
:1054900000230A22204601F01DFC5E45814631466C
:1054A0004FF000034FF00A02204600F0E98101F0BE
:1054B00011FC5946064600230A22204601F00AFC48
:1054C00047468346A3E71C200A9B054403440A93EE
:1054D000089B0344089363E74146484601F0C8FD32
:1054E0000028BFF673AF029F494600230A222046D8
:1054F000013F029701F0EEFB0B9B8146002B40F031
:10550000B5830F9B002B40F3BE830793DDF810A0FB
:10551000079F554606E0494600230A22204601F02F
:10552000D9FB814641464846FFF71CFC303005F860
:10553000010BA5EB0A03BB42EDDB049B079A8246F5
:10554000012AACBF9B1801334FF0000B1D464946A2
:105550000122204601F03CFD4146814601F088FDD4
:10556000002840F33F8215F8012C6B1E049904E0DB
:105570008B4200F0AE8113F8012D392A03F10105A9
:10558000F6D001321A704146204601F099FB002EF8
:105590003FF43DAEBBF1000F05D0B34503D05946F3
:1055A000204601F08DFB3146204601F089FB2EE6B6
:1055B00000230B93029B259A13440F930133012B75
:1055C0001F461E46B8BF012707930021172F6164AD
:1055D0000AD9012204235B0003F11400874211461B
:1055E00002F10102F7D26164204601F043FB0E2E66
:1055F000049020643FF647AD002D3FF444AD02997E
:10560000CDE910AB002940F30382B94B01F00F0242
:105610000D1103EBC203E906D3E9006740F1AF8146
:10562000B44B5046D3E908235946FBF7A5FE4FF08B
:10563000030ACDE9120105F00F058DB1DFF8B48240
:10564000EA0709D5D8E9002330463946FBF76AFD59
:1056500006460F460AF1010A6D1008F10808EFD15D
:105660003B46DDE912013246FBF786FE07468846D7
:105670000E9B43B10022A04B3846414602F0CCFFBE
:10568000002840F087825046FBF7E6FC3A46434646
:10569000FBF748FD994B0022FBF792FB079B054661
:1056A000A1F15076002B00F03F81029B1593079BE0
:1056B00012930B9B002B00F0FB81129A8C4B002065
:1056C00003EBC20353E902238D49FBF755FE2A463B
:1056D0003346FBF773FB82468B463846414602F061
:1056E000D9FF0546FBF7B8FC02460B463846414653
:1056F000FBF764FB30355FFA85F8049D06460F46DC
:1057000085F8008002460B4650465946013502F0A6
:10571000A1FF002854D132463B4600207649FBF7D2
:105720004DFB02460B465046594602F093FF0028B7
:1057300040F07082129A012A00F01281129B049AA2
:10574000CDF84890134499460FE032463B4600207E
:105750006949FBF733FB52465B4602F05DFF0028C8
:1057600040F056824D4500F0F980504659460022DF
:10577000644BFBF7D7FC0022624B82468B463046D7
:105780003946FBF7CFFC0F46064602F083FF804602
:10579000FBF762FC02460B4630463946FBF70EFB30
:1057A00008F130085FFA88F805F8018B52465B462D
:1057B00006460F4602F030FF0028C6D0DDF84890BC
:1057C000159B029323E500230B93259B002B40F3AD
:1057D000DD801F461E460F930793F6E601230B93C9
:1057E000F3E7BAF1000F7FF4A7ADCBF31303002B5F
:1057F0007FF4BCAD2BF000473F0D3F05002F00F0BC
:105800000D820A9B01330A93089B013308930123FD
:105810000C93ADE5079B002B3FF748AC40F022828C
:10582000DDE908010022384BFBF77CFC52465B4661
:1058300002F006FFDDF81C804646002841D0259B7B
:10584000049DDB4302934146204601F039FA002EC5
:105850003FF4DDACA7E60C9A4946204601F068FB10
:10586000814657E5149A002A00F0888103F23343F9
:105870000C9F0A9DF2E4BAF1000F7FF477ADB4E714
:1058800001F028FA474606468346C0E50146204611
:10589000089301F015FA0122089BE2E5249B022BF4
:1058A0007FF798AD079B002BC9D1414605222046C2
:1058B00001F010FA01468046484601F0D9FB002865
:1058C000BDDD3123029A0499013202920B704D1C06
:1058D000B9E73123029A01320292049A137052E618
:1058E00001230B9366E6DDF828900B9C8FE400BF44
:1058F000188B0800F08A08000000F03F00001C40F0
:105900000000E03F00002440000014405046FBF738
:10591000A3FB3A464346FBF705FC0022C14BFBF7CD
:105920004FFA0546A1F1507641460022BE4B38465B
:10593000FBF744FA2A46334682468B4602F08AFE3B
:105940008046002840F010812A4606F10043504668
:10595000594602F061FE18B1464670E7DDF84890FE
:10596000DDE910ABFFF78FBB0498FFF7C0BA0C9BC3
:105970000D9AFB1A1A440C970D92002768E4DDE992
:1059800010234FF0020ACDE9122356E6002101232D
:1059900020466164259301F06DF9259B04900793DF
:1059A000259B20640F9327E6002AD046CDF820B02F
:1059B0009A4611DD49460122204601F009FB414685
:1059C000814601F055FB002840F34581BAF1390FBB
:1059D00000F0058105F1310AB34687F800A07D1C6F
:1059E000089ED0E504D11AF0010F01D0BBE51546A1
:1059F00015F8013C6A1E302BF9D0C4E53022049919
:105A00000A70029A15F8018C01320292FFF7FBBB73
:105A100000F0BB80DDE91001029B4FF0020A5D42FD
:105A2000824B05F00F0203EBC203D3E90023FBF71F
:105A300079FB2D11074688463FF41AAE7C4EEB07E2
:105A400009D5D6E9002338464146FBF76BFB0746EC
:105A500088460AF1010A6D1006F10806EFD107E643
:105A60007168204601F006F90546336906F10C011C
:105A700002339A000C3001F023F829460122204617
:105A800001F0A6FA0890B6E4392BCDF820B0D04644
:105A900000F0A58003F1010AB34687F800A07D1C41
:105AA000089E70E55A46D046B3469A4616464EE5DD
:105AB00012985E492A4601EBC001334651E90201C2
:105AC000FBF730FBCDE916013846414602F0E2FD16
:105AD0000546FBF7C1FA02460B4638464146FBF73E
