:0200000280007C
:10000000982C07200D0D0800090D0800090D0800A7
:10001000090D0800090D0800090D08000000000086
:10002000000000000000000000000000090D0800B2
:10003000090D080000000000090D0800090D080066
:10004000090D0800090D0800090D0800090D080038
:10005000090D0800090D0800090D0800090D080028
:10006000090D0800090D0800000000007D0B0800C4
:10007000910B0800A50B0800B90B08000000000058
:100080000000000091040800090D0800090D080097
:10009000090D0800090D0800090D0800090D0800E8
:1000A000090D080000000000090D0800090D0800F6
:1000B000090D0800090D0800090D0800090D0800C8
:1000C000090D0800090D0800090D0800090D0800B8
:1000D000090D0800090D0800090D0800090D0800A8
:1000E000090D0800090D0800090D0800090D080098
:1000F000090D080010B5054C237833B9044B13B132
:100100000448AFF300800123237010BDF00A0720DC
:1001100000000000447C08000C4B43B10C4810B5B3
:100120000C49AFF300800C48036823B910BD0A489E
:10013000036833B97047094B002BF7D0BDE8104076
:100140001847064B002BF5D0184700BF00000000F1
:10015000447C0800F40A0720447C080000000000EA
:1001600070B5054625200F4B98470F4C08230F4AC2
:100170000F4920460F4EB04701234FF44012002193
:1001800020460D4EB047002120460C4B9847E9B25F
:1001900020460B4B9847002211462046094B9847B2
:1001A00070BD00BFB50C080000000C4000A8610045
:1001B000007A030A290208007B0208005D02080099
:1001C0009D0208006D02080038B5054D054C284613
:1001D000A04710F0807FFAD00148034B984738BD04
:1001E00000000C40AB020800A70208002DE9F04116
:1001F00080B90C469046002A0FDD8F18084E094D35
:10020000306821462B6898470134BC42F8D14046FB
:10021000BDE8F0814FF0FF38F9E78046F7E700BF0F
:10022000680C0720600C072030B40124046000240F
:10023000446040F20225C0F82051C0F80441C0F8E3
:10024000144145685200B1FBF2F2013A120292B237
:100250002B431A434260204630BC7047436823F06A
:100260001003436043681943416070474368D201FB
:10027000D2B219430A434260704710B44468090679
:1002800001F0706121430A43190701F04051114305
:10029000416010BC7047022303607047012303FADA
:1002A00001F101617047006A7047006B7047000000
:1002B00038B50C4B18604000441C0B4B1C600B4DB8
:1002C00008460B4B98470B490B4B98470B4B9847ED
:1002D000286021460A480B4CA04729680A48A047D5
:1002E00038BD00BF140B0720100B07200C0B072094
:1002F000FD1808001CD69E3FA5190800451C0800E3
:1003000010790800E11C080020790800034B1B68E5
:10031000C01A0028D4BF0020012070470C0B072012
:100320002DE9F04F89B000AF3861F960C7E90023CB
:100330008B000A3323F00703ADEB030D3C4BD3F8DE
:100340000080A1EB08037B61984545DA0DEB880B33
:100350000023BB61FB61DFF8D8A0DFF8F89007E06D
:1003600008F101080BF1040BFC617B69434535DDA5
:100370005E460023CBF80030DAF800506C42A5420C
:1003800011DDA8EB05053B6903EB850555F8042B4A
:1003900033681A44326041462648C8470134DAF8C7
:1003A0000030A342F2DC3468234B1B6894FBF3F467
:1003B0003460224641462148C847B8F1010FCFDDDD
:1003C000F8691F4DA84706462046A8478642C7D071
:1003D000BB690133BB61C3E70023BB61F868194BFC
:1003E0009847194ED7E90023B04704460D46BB692C
:1003F0005808164B984782468B4622462B46B047F4
:100400008046894652465B461148124EB047204608
:100410002946114B984701461048B047B969104822
:10042000B047404649462437BD46BDE8F08F00BF7F
:10043000140B0720C8780800100B0720D478080098
:100440000D03080099120800B91508007912080078
:10045000E4780800E11C08000D0F0800F07808009F
:1004600004790800436913F0020F1DBFC1F30801AE
:10047000C161002001207047436913F0010F05D0CE
:100480008369C3F308030B600020704701207047A5
:1004900000B583B001220DF107011048104B9847B9
:1004A00072B6BFF35F8F00220E4B1A700E4B1B7893
:1004B0009DF807100D4AD1549B2B0BD001330A4AEB
:1004C00013700122074B1A70BFF35F8F62B603B03F
:1004D0005DF804FB0022044B1A70F2E7008009402B
:1004E0004105080038010720B40B0720180B07202E
:1004F0000138022815D82DE9F0410E4614469AB16C
:100500000D46DFF838800C4FD8F8000015F8011BB5
:100510003B68984700280ADBA81B013CF4D1BDE8E2
:10052000F0814FF0FF3070471046BDE8F0814FF08A
:10053000FF30BDE8F08100BF640C0720680C072085
:10054000002A51D02DE9F04F83B005460C46924663
:100550008A44264FDFF8A890254E1DE021463846F4
:10056000C8470028FAD121E09B46DFF8988001A90E
:100570005846C0470028FAD1019B237019E09B46DA
:10058000DFF8808001A95846C0470028FAD1019BB6
:1005900023700134544523D000230193BD42DDD0A4
:1005A000144B9D42E0D0144B9D42E8D0134B9D422A
:1005B0000BD0B542EDD1DFF84C8001A93046C047E1
:1005C0000028FAD1019B2370E3E79B46DFF83480D3
:1005D00001A95846C0470028FAD1019B2370D8E7EB
:1005E000002003B0BDE8F08F0020704700080E40E7
:1005F00000400A400080094000C0094000000A4055
:100600004F0608007904080010B4AC2303600B689F
:100610004A68B3FBF2F31B095C1E4FF6FE7294426C
:100620000BD803628B68436040F20223C0F820318C
:1006300050230360002010BC70470120FBE7436992
:1006400013F0020F1ABFC1610020012070474369F7
:1006500013F0010F1DBF83690B700020012070474C
:10066000F0B583B004460D4600230193204B984219
:100670000DD0204B984212D01F4B984219D01F4BDF
:100680009C4220D01E4B9C4227D003B0F0BD1F4699
:100690001C4E29463846B0470028FAD1EFE71F46DE
:1006A000194E01A93846B0470028FAD1019B2B709A
:1006B000E8E71E46144C01A93046A0470028FAD1AD
:1006C000019B2B70E1E71E460F4C01A93046A04765
:1006D0000028FAD1019B2B70D7E71E460A4C01A9CE
:1006E0003046A0470028FAD1019B2B70CDE700BF10
:1006F00000080E400080094000C0094000000A4088
:1007000000400A404F0608007904080070B50C4606
:100710001E4B98420DD01E4B984213D01D4B984251
:1007200019D01D4B98421FD01C4B984225D0002059
:1007300070BD1E461A4D21463046A8470028FAD102
:10074000012070BD1E46174D21463046A84700289F
:10075000FAD1012070BD1E46124D21463046A847F1
:100760000028FAD1012070BD1E460E4D21463046AC
:10077000A8470028FAD1012070BD1E46094D214628
:100780003046A8470028FAD1012070BD00080E406D
:100790000080094000C0094000000A4000400A40B3
:1007A0003F0608006504080030B585B00820154DE7
:1007B000A847154C154B1C60154A164B1A60164A73
:1007C000164B1A60164B01934FF4E13302934FF42A
:1007D000006303930820A84701A92046114B9847BE
:1007E000114D2B6800219868104CA0472B68002100
:1007F0005868A0470E480F4CA0470F48A04705B0C7
:1008000030BD00BFB50C080000080E40680C072082
:100810000D070800640C072061060800600C072023
:1008200000BD010509060800400107203523080026
:1008300030790800E11C08004079080010B50E4826
:100840000E4B98473E2100200D4B98470D4CA0477A
:100850000028FCD00C4B98470C4A0D4B9A620D4C6B
:10086000A0470028FCD010200B4B98470B4B984713
:100870000148024B984710BD00BD0105B10007209B
:10088000310C0800850C0800950C0800013F0D2074
:1008900000060E40A50C0800CD0B0800A50D0800B1
:1008A00010B54FF40042164B5A600B20154CA04770
:1008B0000C20A0470D20A0470E20A0474FF060510C
:1008C0003B20114CA0474FF060515520A0474FF0FE
:1008D00060515620A0470D496820A0470C495C2074
:1008E000A0470C4A4FF440710B480C4B98474FF00F
:1008F00000612B20A0474FF000612A20A04710BDC7
:10090000501A0E40B50C0800C109080079000028F3
:100910000100002801000008000E0E40910A0800A6
:100920004264B1F1805F16D00BD849B1B1F1006FCC
:1009300005D1036F016F0B4023EA02030367426096
:100940007047B1F1405FFBD0B1F1605FF8D0B1F119
:10095000205FF4D17047036F13430367EFE74164EF
:1009600012F0010F14BF4166016612F00A0F14BFA6
:100970000162416212F0020F07D112F0080F18BF96
:10098000C0F88410416101607047C0F88010F9E739
:1009900010B4019C416444B9016643B1016542B998
:1009A00041630161016010BC70474166F5E7416534
:1009B000F5E70163F5E7C06C7047806C7047000095
:1009C00070B582B00D46430903F5001303F20773B7
:1009D0005C0201F0F043B3F1205F31D016D8B3F1DF
:1009E000006F1BD0B3F1805F16D100F01F0001260D
:1009F000864032464FF080512046224B984715F0F2
:100A0000010F14BF66662666012017E0B3F1405F50
:100A100021D0B3F1605F1ED000200FE000F01F0076
:100A20000126864032464FF000612046154B98471C
:100A300015F0010F14BF66662666012002B070BD76
:100A400000F01F0101262A4606FA01F120460E4B4E
:100A500098473046F2E705F0605200F01F0101268A
:100A600005EA06030093C5F38003B2F1605F14BF8B
:100A70000022012206FA01F12046044CA04730462C
:100A8000DCE700BF210908005F09080091090800A0
:100A900070B582B005460E46144602F0F043B3F13D
:100AA000205F27D011D8B3F1006F16D0B3F1805F6B
:100AB00011D10A464FF08051194B984714F0010F9D
:100AC00014BF6E662E66012012E0B3F1405F15D0B0
:100AD000B3F1605F12D000200AE00A464FF00061D7
:100AE0000F4B984714F0010F14BF6E662E6601205D
:100AF00002B070BD0B4B98470120F9E704F060523B
:100B000004F001030093C4F38003B2F1605F14BFEB
:100B10000022012231462846034CA0470120E7E786
:100B2000210908005F090800910908002DE9F0413A
:100B3000044688460E4B9847054620460D4B98477D
:100B4000054013D00C4C04F1600603E0B4420DD014
:100B500010345DB120684045F8D161682942F5D074
:100B6000E3689847636825EA0305EFE7BDE8F0818D
:100B7000B7090800BB090800B80B072008B50B210E
:100B80000148024B984708BD000E0E402D0B08008F
:100B900008B50C210148024B984708BD00100E40D3
:100BA0002D0B080008B50D210148024B984708BDE0
:100BB00000120E402D0B080008B50E210148024B13
:100BC000984708BD00140E402D0B0800174A136B00
:100BD00023F0700318431063936E13F0080F0AD1CB
:100BE0004FF4006311498A6E12F0080F03D1013BE4
:100BF000F9D1012070470D4A136B23F0030343F032
:100C000002031363936E13F0080F0AD14FF40063CD
:100C100006498A6E12F0080F05D1013BF9D1012077
:100C20007047002070470020704700BF00060E404C
:100C3000C8B9114A136A090289B223F45C1323F07C
:100C4000030343F45C1343F001030B431362936EFD
:100C500013F0010FFBD0084A136A43F09B7343F46F
:100C600080331362704704490B6A044A1A40044BEC
:100C700013430B62704700BF00060E40FCFFC8FE26
:100C800002003701024B986E00F48030704700BFBD
:100C900000060E404FF00052014B9A62704700BFB1
:100CA00000060E40024B986E00F00200704700BF35
:100CB00000060E402C281ED81F280CD8114B9A690C
:100CC00001238340934318D0012303FA00F00D4B16
:100CD00018610020704720380A4BD3F808210123FF
:100CE000834093430BD0012303FA00F0054BC3F874
:100CF000000100207047012070470020704700204D
:100D0000704700BF00060E40FEE7000008B51C4B10
:100D10001C4A9A4210D01C4B194A9A420CD2013BF1
:100D20009B1A23F0030304331344164951F8040BB0
:100D300042F8040B9A42F9D1144B154A9A420AD24E
:100D4000013B9B1A23F0030304331344002142F8B0
:100D5000041B9342FBD10F4B23F0604222F07F0231
:100D60000D498A6003F16043B3F5801F03D28B689D
:100D700043F000538B60094B9847094B9847FEE7B7
:100D800000000720447C0800F00A0720940C07208C
:100D9000F00A07200000080000ED00E0911C0800A8
:100DA000410F08003D4B1B6B03F00303032B0ED8D0
:100DB000DFE803F0021C3838394B5B6913F0800F11
:100DC00014BF4FF400424FF4FA42364B1A60334BD3
:100DD0001B6B03F07003702B57D0304B1A6B3149EB
:100DE000C2F302120B68D3400B6070472B4B1B6A97
:100DF00013F0807F03D02C4A2A4B1A60E7E72B4A76
:100E0000284B1A60254B1B6A03F07003102B05D08A
:100E1000202BDCD1244A234B1A60D8E7244A214BEB
:100E20001A60D4E71D4B1B6A13F0807F0CD01E4A5A
:100E30001C4B1A60194B1B6B03F00303022B16D0DB
:100E40001C4A184B1A60C2E7184A164B1A60134B1B
:100E50001B6A03F07003102B05D0202BEAD1124A35
:100E6000104B1A60E6E7124A0E4B1A60E2E70B4A93
:100E7000916A926A0B48C1F30A41036801FB03338C
:100E8000D2B2B3FBF2F30360A1E7064A13680A4942
:100E9000A1FB03135B081360704700BF00060E4000
:100EA000101A0E403C010720001BB70000093D004E
:100EB00000127A00001C4E0EABAAAAAA0A4B1B68AD
:100EC00053B1094B1B681A180849914208DB1046B8
:100ED000054A106018467047054A034B1A60F0E750
:100EE0004FF0FF30704700BF280C0720FC7F082020
:100EF000982C07204FF0FF3070474FF400534B60A1
:100F0000002070470120704700207047F8B5064662
:100F10000F461420074B98470446002303604360A4
:100F20008360C360036132463B460349034DA847D3
:100F30002046F8BD091D080050790800D524080096
:100F40002DE9F04700AF1E4B98471E4B98471E4BAC
:100F5000984707201D4B9847ADF5816DEA46ADF1E6
:100F600004040DF57F79DFF88880194E194D40464D
:100F7000B047A84744F8040F4FF41670164B984733
:100F80004C45F4D14FF4FA710120144B98470AA351
:100F9000D3E900234FF480715046114CA047114B08
:100FA000984701461048114B98470020BD46BDE8C0
:100FB000F08700BFAFF30080000000000088C3404E
:100FC0003D080800A1080800A90708006101080001
:100FD00097020800C901080001000720B1020800BB
:100FE000210308000D0F080058790800E11C0800D3
:100FF00000000C4081F0004102E000BF83F000439C
:1010000030B54FEA41044FEA430594EA050F08BFA3
:1010100090EA020F1FBF54EA000C55EA020C7FEA67
:10102000645C7FEA655C00F0E2804FEA5454D4EBE4
:101030005555B8BF6D420CDD2C4480EA020281EAAE
:10104000030382EA000083EA010180EA020281EAE6
:101050000303362D88BF30BD11F0004F4FEA013138
:101060004FF4801C4CEA113102D0404261EB410147
:1010700013F0004F4FEA03334CEA133302D05242CD
:1010800063EB430394EA050F00F0A780A4F1010489
:10109000D5F1200E0DDB02FA0EFC22FA05F28018C3
:1010A00041F1000103FA0EF2801843FA05F35941A9
:1010B0000EE0A5F120050EF1200E012A03FA0EFC28
:1010C00028BF4CF0020C43FA05F3C01851EBE37152
:1010D00001F0004507D54FF0000EDCF1000C7EEB6F
:1010E00000006EEB0101B1F5801F1BD3B1F5001FAD
:1010F0000CD349085FEA30004FEA3C0C04F10104CC
:101100004FEA445212F5800F80F09A80BCF1004FF4
:1011100008BF5FEA500C50F1000041EB045141EA76
:10112000050130BD5FEA4C0C404141EB010111F477
:10113000801FA4F10104E9D191F0000F04BF014622
:101140000020B1FA81F308BF2033A3F10B03B3F100
:1011500020020CDA0C3208DD02F1140CC2F10C0290
:1011600001FA0CF021FA02F10CE002F11402D8BFEE
:10117000C2F1200C01FA02F120FA0CFCDCBF41EABA
:101180000C019040E41AA2BF01EB0451294330BD89
:101190006FEA04041F3C1CDA0C340EDC04F1140466
:1011A000C4F1200220FA04F001FA02F340EA03003D
:1011B00021FA04F345EA030130BDC4F10C04C4F183
:1011C000200220FA02F001FA04F340EA0300294663
:1011D00030BD21FA04F0294630BD94F0000F83F4AD
:1011E000801306BF81F480110134013D4EE77FEA90
:1011F000645C18BF7FEA655C29D094EA050F08BFDC
:1012000090EA020F05D054EA000C04BF19461046BC
:1012100030BD91EA030F1EBF0021002030BD5FEA00
:10122000545C05D14000494128BF41F0004130BD28
:1012300014F580043CBF01F5801130BD01F000457C
:1012400045F0FE4141F470014FF0000030BD7FEAEF
:10125000645C1ABF194610467FEA655C1CBF0B46EA
:10126000024650EA013406BF52EA033591EA030F01
:1012700041F4002130BD00BF90F0000F04BF0021F9
:10128000704730B54FF4806404F132044FF000052C
:101290004FF0000150E700BF90F0000F04BF0021A5
:1012A000704730B54FF4806404F1320410F000450B
:1012B00048BF40424FF000013EE700BF42004FEA06
:1012C000E2014FEA31014FEA02701FBF12F07F4383
:1012D00093F07F4F81F06051704792F0000F14BF80
:1012E00093F07F4F704730B54FF4607401F00045C4
:1012F00021F0004120E700BF50EA010208BF70471B
:1013000030B54FF000050AE050EA010208BF70470F
:1013100030B511F0004502D5404261EB41014FF478
:10132000806404F132045FEA915C3FF4DCAE4FF07C
:1013300003025FEADC0C18BF03325FEADC0C18BF63
:10134000033202EBDC02C2F1200300FA03FC20FAB4
:1013500002F001FA03FE40EA0E0021FA02F1144401
:10136000C1E600BF70B54FF0FF0C4CF4E06C1CEA16
:1013700011541DBF1CEA135594EA0C0F95EA0C0F8B
:1013800000F0DEF82C4481EA030621EA4C5123EAFE
:101390004C5350EA013518BF52EA033541F480112D
:1013A00043F4801338D0A0FB02CE4FF00005E1FBE0
:1013B00002E506F00042E0FB03E54FF00006E1FB2A
:1013C00003569CF0000F18BF4EF0010EA4F1FF046D
:1013D000B6F5007F64F5407404D25FEA4E0E6D41AD
:1013E00046EB060642EAC62141EA55514FEAC520BE
:1013F00040EA5E504FEACE2EB4F1FD0C88BFBCF53A
:10140000E06F1ED8BEF1004F08BF5FEA500E50F1EA
:10141000000041EB045170BD06F0004646EA0101B0
:1014200040EA020081EA0301B4EB5C04C2BFD4EBE2
:101430000C0541EA045170BD41F480114FF0000EDB
:10144000013C00F3AB8014F1360FDEBF002001F049
:10145000004170BDC4F10004203C35DA0C341BDCC3
:1014600004F11404C4F1200500FA05F320FA04F095
:1014700001FA05F240EA020001F0004221F00041C9
:1014800010EBD37021FA04F642EB06015EEA430E3C
:1014900008BF20EAD37070BDC4F10C04C4F120056C
:1014A00000FA04F320FA05F001FA04F240EA02001F
:1014B00001F0004110EBD37041F100015EEA430EF0
:1014C00008BF20EAD37070BDC4F1200500FA05F210
:1014D0004EEA020E20FA04F301FA05F243EA02038F
:1014E00021FA04F001F0004121FA04F220EA02009E
:1014F00000EBD3705EEA430E08BF20EAD37070BDE4
:1015000094F0000F0FD101F00046400041EB0101C3
:1015100011F4801F08BF013CF7D041EA060195F0A5
:10152000000F18BF704703F00046520043EB03035F
:1015300013F4801F08BF013DF7D043EA060370474C
:1015400094EA0C0F0CEA135518BF95EA0C0F0CD057
:1015500050EA410618BF52EA4306D1D181EA03019D
:1015600001F000414FF0000070BD50EA410606BF97
:101570001046194652EA430619D094EA0C0F02D1DC
:1015800050EA013613D195EA0C0F05D152EA033621
:101590001CBF104619460AD181EA030101F000413F
:1015A00041F0FE4141F470014FF0000070BD41F088
:1015B000FE4141F4780170BD70B54FF0FF0C4CF462
:1015C000E06C1CEA11541DBF1CEA135594EA0C0F81
:1015D00095EA0C0F00F0A7F8A4EB050481EA030ECE
:1015E00052EA03354FEA013100F088804FEA0333B5
:1015F0004FF0805545EA131343EA12634FEA022283
:1016000045EA111545EA10654FEA00260EF0004143
:101610009D4208BF964244F1FD0404F5407402D295
:101620005B084FEA3202B61A65EB03055B084FEA26
:1016300032024FF480104FF4002CB6EB020E75EB23
:10164000030E22BFB61A754640EA0C005B084FEA4B
:101650003202B6EB020E75EB030E22BFB61A7546C8
:1016600040EA5C005B084FEA3202B6EB020E75EB13
:10167000030E22BFB61A754640EA9C005B084FEA8B
:101680003202B6EB020E75EB030E22BFB61A754698
:1016900040EADC0055EA060E18D04FEA051545EA87
:1016A00016754FEA06164FEAC30343EA52734FEA30
:1016B000C2025FEA1C1CC0D111F4801F0BD141EAA9
:1016C00000014FF000004FF0004CB6E711F4801F0E
:1016D00004BF01430020B4F1FD0C88BFBCF5E06FEE
:1016E0003FF6AFAEB5EB030C04BFB6EB020C5FEAFE
:1016F000500C50F1000041EB045170BD0EF0004E53
:101700004EEA113114EB5C04C2BFD4EB0C0541EA84
:10171000045170BD41F480114FF0000E013C90E681
:1017200045EA060E8DE60CEA135594EA0C0F08BF45
:1017300095EA0C0F3FF43BAF94EA0C0F0AD150EA44
:1017400001347FF434AF95EA0C0F7FF425AF1046D7
:1017500019462CE795EA0C0F06D152EA03353FF4FF
:10176000FDAE1046194622E750EA410618BF52EA7C
:1017700043067FF4C5AE50EA41047FF40DAF52EA50
:1017800043057FF4EBAE12E780F0004002E000BFBB
:1017900081F0004142001FBF5FEA410392EA030F5C
:1017A0007FEA226C7FEA236C6AD04FEA1262D2EBA6
:1017B0001363C1BFD218414048404140B8BF5B42AB
:1017C000192B88BF704710F0004F40F4000020F044
:1017D0007F4018BF404211F0004F41F4000121F05A
:1017E0007F4118BF494292EA030F3FD0A2F10102A4
:1017F00041FA03FC10EB0C00C3F1200301FA03F1E2
:1018000000F0004302D5494260EB4000B0F5000F04
:1018100013D3B0F1807F06D340084FEA310102F1C3
:101820000102FE2A51D2B1F1004F40EBC25008BF75
:1018300020F0010040EA03007047490040EB00003F
:1018400010F4000FA2F10102EDD1B0FA80FCACF16E
:10185000080CB2EB0C0200FA0CF0AABF00EBC2506D
:1018600052421843BCBFD0401843704792F0000F5B
:1018700081F4000106BF80F400000132013BB5E7AE
:101880004FEA41037FEA226C18BF7FEA236C21D024
:1018900092EA030F04D092F0000F08BF0846704789
:1018A00090EA010F1CBF0020704712F07F4F04D157
:1018B000400028BF40F00040704712F100723CBF6A
:1018C00000F50000704700F0004343F0FE4040F494
:1018D000000070477FEA226216BF08467FEA236352
:1018E0000146420206BF5FEA412390EA010F40F43D
:1018F000800070474FF0000304E000BF10F0004389
:1019000048BF40425FEA000C08BF704743F096436F
:1019100001464FF000001CE050EA010208BF70478A
:101920004FF000030AE000BF50EA010208BF704711
:1019300011F0004302D5404261EB41015FEA010C26
:1019400002BF84460146002043F0B64308BFA3F11E
:101950008053A3F50003BCFA8CF2083AA3EBC25300
:1019600010DB01FA02FC634400FA02FCC2F120021F
:10197000BCF1004F20FA02F243EB020008BF20F056
:101980000100704702F1200201FA02FCC2F12002BC
:1019900050EA4C0021FA02F243EB020008BF20EAB1
:1019A000DC7070474FF0FF0C1CEAD0521EBF1CEADF
:1019B000D15392EA0C0F93EA0C0F6FD01A4480EACD
:1019C000010C400218BF5FEA41211ED04FF00063B6
:1019D00043EA501043EA5111A0FB01310CF00040E2
:1019E000B1F5000F3EBF490041EAD3715B0040EA08
:1019F000010062F17F02FD2A1DD8B3F1004F40EBD8
:101A0000C25008BF20F00100704790F0000F0CF0AA
:101A1000004C08BF49024CEA502040EA51207F3A6E
:101A2000C2BFD2F1FF0340EAC250704740F4000049
:101A30004FF00003013A5DDC12F1190FDCBF00F03A
:101A400000407047C2F10002410021FA02F1C2F1E8
:101A5000200200FA02FC5FEA310040F1000053EA84
:101A60004C0308BF20EADC70704792F0000F00F0D2
:101A7000004C02BF400010F4000F013AF9D040EAD8
:101A80000C0093F0000F01F0004C02BF490011F46C
:101A9000000F013BF9D041EA0C018FE70CEAD1536A
:101AA00092EA0C0F18BF93EA0C0F0AD030F0004CEA
:101AB00018BF31F0004CD8D180EA010000F000409E
:101AC000704790F0000F17BF90F0004F084691F05C
:101AD000000F91F0004F14D092EA0C0F01D1420296
:101AE0000FD193EA0C0F03D14B0218BF084608D15F
:101AF00080EA010000F0004040F0FE4040F40000A9
:101B0000704740F0FE4040F4400070474FF0FF0C3B
:101B10001CEAD0521EBF1CEAD15392EA0C0F93EA82
:101B20000C0F69D0A2EB030280EA010C49024FEAD4
:101B3000402037D04FF0805343EA111143EA10138D
:101B40000CF000408B4238BF5B0042F17D024FF445
:101B5000000C8B4224BF5B1A40EA0C00B3EB510F20
:101B600024BFA3EB510340EA5C00B3EB910F24BF09
:101B7000A3EB910340EA9C00B3EBD10F24BFA3EB8E
:101B8000D10340EADC001B0118BF5FEA1C1CE0D156
:101B9000FD2A3FF650AF8B4240EBC25008BF20F009
:101BA000010070470CF0004C4CEA50207F32C2BF5D
:101BB000D2F1FF0340EAC250704740F400004FF0FA
:101BC0000003013A37E792F0000F00F0004C02BF2B
:101BD000400010F4000F013AF9D040EA0C0093F0F5
:101BE000000F01F0004C02BF490011F4000F013B4F
:101BF000F9D041EA0C0195E70CEAD15392EA0C0FB7
:101C000008D142027FF47DAF93EA0C0F7FF470AFEE
:101C1000084676E793EA0C0F04D14B023FF44CAF31
:101C200008466EE730F0004C18BF31F0004CCAD1C6
:101C300030F000427FF45CAF31F000437FF43CAF02
:101C40005FE700BF4FEA4002B2F1FE4F0FD34FF003
:101C50009E03B3EB12620DD94FEA002343F0004319
:101C600010F0004F23FA02F018BF404270474FF0C7
:101C70000000704712F1610F01D1420205D110F04E
:101C8000004008BF6FF0004070474FF00000704701
:101C900070B50F4E0F4D761BB61018BF002405D03F
:101CA000013455F8043B9847A642F9D10A4E0B4D32
:101CB00005F0B2FF761BB61018BF002406D0013421
:101CC00055F8043B9847A642F9D170BD70BD00BFDE
:101CD000247C0800247C08002C7C0800247C08005C
:101CE0000FB410B5074B82B004AC54F8042B18683D
:101CF00023468168019401F001FF02B0BDE8104065
:101D000004B0704740010720024B0146186800F0FC
:101D100003B800BF400107202DE9F04F01F10B0689
:101D2000162E83B0054640F29E8036F0070600F17D
:101D3000BD80B14200F2BA8000F0DEFAB6F5FC7F59
:101D4000C0F08582730A00F0B880042B00F26C8129
:101D5000B30903F1390003F1380EC100B84F39441B
:101D60004C680839A14206D10CE0002A80F2AB8011
:101D7000E468A14206D0636823F003039A1B0F2A8C
:101D8000F3DD70463C69DFF8CCE2744500F09E81DB
:101D9000636823F003039A1B0F2A00F38381002A50
:101DA000C7F814E0C7F810E080F29180B3F5007F27
:101DB00080F054810122DB0879684FEAA30C1344B8
:101DC00057F8338002FA0CF207EBC30C0A43ACF16C
:101DD0000801E160C4F808807A6047F83340C8F829
:101DE0000C40012483109C4094427DD8144206D1BB
:101DF00020F003006400144200F10400FAD007EB65
:101E0000C009CC468046DCF80C309C4507D15FE128
:101E1000002A80F26D81DB689C4500F05981596889
:101E200021F003018A1B0F2AF2DDDC68D3F808C019
:101E300046F0010828461E4442F00105C3F804801C
:101E4000CCF80C40C4F808C07E613E61C6F80CE0D6
:101E5000C6F808E075605A50009300F053FA009BF2
:101E600003F108041EE0102920D800F045FA1026DE
:101E700018230220724F3B445C68A3F1080294428D
:101E800000F02F816368E16823F0030323445A685C
:101E9000A66842F00102F16028468E605A6000F0A8
:101EA00031FA0834204603B0BDE8F08F00240C233B
:101EB00020462B6003B0BDE8F08F40204FF4007146
:101EC0004FF03F0E4AE723445A68E168E0E72344B5
:101ED0005A68284642F001025A60083400F012FAAB
:101EE000204603B0BDE8F08FBC68636823F00308A8
:101EF000B04504D3A8EB06030F2B00F38580DFF871
:101F00005891504BD9F800201B680132334404EB40
:101F1000080A00F0548103F580530F3323F47F6BDC
:101F20002BF00F0B5946284600F0F2F9411C0246EF
:101F300000F0FB80824500F2F680434B196859445B
:101F4000196000F04C81D9F8000001301BBFA2EBF2
:101F50000A0A5144C9F80020196012F0070100F084
:101F60001481C1F10800C1F580510244083102EB2F
:101F70000B09C9F30B09A1EB09094946284601934E
:101F8000009200F0C5F9431C9DE80C0000F042816E
:101F9000801A484440F001001968BC424944BA60C4
:101FA0001960506017D0B8F10F0F40F2FA804FF06F
:101FB000050C6268A8F10C0020F0070002F0010295
:101FC00004EB000E02430F286260CEF804C0CEF886
:101FD00008C000F216811D4BBC681A68914288BF88
:101FE00019601B4B1A689142626888BF196022F021
:101FF00003029642A2EB060301D80F2B04DC28460D
:1020000000F080F900244DE746F0010243F001039F
:10201000264462602846BE600834736000F072F99E
:10202000204603B0BDE8F08F142B70D9542B00F27A
:10203000A280330B03F16F0003F16E0EC1008DE639
:10204000700507205C0C07202C0C0720540C07207F
:10205000580C072078050720780907205A0A042A17
:102060005BD9142A00F2AE8002F15C01C9005B3238
:1020700007EB010C7958ACF1080C8C4500F0888016
:102080004A6822F00302934273D289688C45F7D1E3
:10209000DCF80C307A68E360C4F808C09C60CCF8C7
:1020A0000C409EE646F0010C42F001012644C4F8C3
:1020B00004C028467E613E61C6F80CE0C6F808E020
:1020C0007160E25000F01EF90834EBE67A6888E6A9
:1020D00008F1010818F0030F0CF1080C7FF493AE1F
:1020E0002DE0DC68A34208BF02303FF44BAEC9E6E6
:1020F0001C4619444A68DB6854F8086F42F0010234
:102100004A602846F3609E6000F0FCF8CAE603F1DE
:102110005C0003F15B0EC10020E69A0902F139016F
:10212000C9003832A4E7BC4254D0BC68626822F0CF
:1021300003025EE759F80839994540F0868010F0AF
:10214000030F00F1FF30F5D17B6823EA04037B60C5
:1021500064009C423FF6C8AE002C3FF4C5AE1C4262
:1021600040467FF44CAE64001C4200F10400FAD0FB
:1021700045E68C468CE7B3F5AA7F15D8F30B03F13F
:10218000780003F1770EC100E8E54FF48051EEE6E8
:1021900001217B68921001FA02F21A437A606346C9
:1021A00079E7012353602AE740F25452934222D840
:1021B000B30C03F17D0003F17C0EC100CEE503F109
:1021C000100BAFE6542A29D81A0B02F16F01C9008F
:1021D0006E324DE7204B196859441960B3E6CAF3D3
:1021E0000B0000287FF4AFAE08EB0B03BA6843F096
:1021F00001035360EFE67F204FF47E714FF07E0EB7
:10220000ACE504F108012846009303F045FD009B6E
:102210001968E0E601204FF00009BDE6B2F5AA7F9B
:1022200005D8DA0B02F17801C900773220E740F2D5
:1022300054518A4205D89A0C02F17D01C9007C32C2
:1022400016E74FF47E717E2212E77B6880E7F00884
:1022500006F108030EE600BF2C0C072070B48607B9
:1022600046D0541E002A41D0CAB2034602E014F1FF
:10227000FF343BD303F8012B9D07F8D1032C2ED953
:10228000CDB245EA05250F2C45EA054519D9264664
:1022900003F11002103E0F2E42F8105C42F80C5C65
:1022A00042F8085C42F8045C02F11002F2D8A4F192
:1022B000100222F00F0204F00F041032032C13441A
:1022C0000DD91E462246043A032A46F8045BFAD882
:1022D000221F22F003020432134404F003042CB141
:1022E000C9B21C4403F8011B9C42FBD170BC70476F
:1022F00014460346C2E700BF014803F075BF00BFA4
:102300007C0C0720014803F071BF00BF7C0C072044
:1023100038B50023064C054608462360FEF7CEFD7F
:10232000431C00D038BD2368002BFBD02B6038BD88
:10233000900C072000290CBF022200224FF480637A
:1023400000F000B82DE9F043614D83B02D680446DC
:102350000F4690461E4615B1AB6B002B64D0B8F10A
:10236000020F06D0B8F1010F00F29F80002EC0F2DC
:102370009C80636ED80734D52146284603F00EFBB7
:10238000216B41B104F14003994202D0284603F089
:1023900083FC002323630022B4F90C30A261626045
:1023A0001A063AD423F44A6323F00303B8F1020F68
:1023B000A3811DD001AB6A462146284603F018FFD1
:1023C000A3891843A081002E32D1009E3046FFF72A
:1023D0009BFC074600286BD0A38943F08003A381B0
:1023E00028E0A3899905C7D4A06D03F0FDFEC3E7DB
:1023F000002500260120616E04F1430243F0020330
:10240000A660CE07A38160612260226101D4980595
:102410003ED5284603B0BDE8F0832169284603F085
:102420003BFCB4F90C30BDE7284603F00FFB96E700
:10243000002FCBD0AB6B002B33D0009BB4F90C201A
:102440009E421CBF42F40062A281B8F1010F04BF9A
:1024500042F00102A28192B212F0080327602761C4
:1024600066610ED0D1071AD50023656E764215F04D
:102470000105A661A36009D00025284603B0BDE888
:10248000F083A360656E15F00105F5D19305C0D406
:10249000A06D03F0ABFE284603B0BDE8F083A66054
:1024A000F0E7284603F0D2FAC7E74FF0FF35B0E770
:1024B000DDF80090B14504D04846FFF725FC0746FB
:1024C00020B9B4F90C304FF0FF3592E74E4683E760
:1024D000400107200EB40146F0B56FF000454FF4FF
:1024E00002774FF6FF769CB021AC54F8042B0B4BCF
:1024F00002910691186802A923460194ADF8147060
:1025000004950795ADF8166000F038F80022029B9C
:102510001A701CB0BDE8F04003B0704740010720BE
:1025200020F0030110F00300C0F1000051F8043B5B
:1025300000F1040C4FEACC0C6FF000021CBF22FA31
:102540000CF213434FF0010C4CEA0C2C4CEA0C4CEF
:10255000A3EB0C0222EA030212EACC1204BF51F8E8
:10256000043B0430F4D0C2F1000102EA0102B2FAE5
:1025700082F2C2F11F0200EBD20070472DE9F04F4A
:10258000C3B00C460B9192460F930C9003F01AFEC9
:10259000036818461A93FFF7C3FFA3891990190619
:1025A00003D52369002B01F0358000230DF1C80904
:1025B000C84615931393149318931B93099316937A
:1025C000179327932693CDF894909AF800305446A9
:1025D000EBB1252B02D11AE0252B03D014F8013FD3
:1025E000002BF9D1A4EB0A058DB1269B279A013364
:1025F0002A44072BC8F800A0C8F804502792269355
:1026000000F38A8008F10808099B2B44099323787A
:10261000002B00F0898000234FF0FF301A468DF820
:10262000773019460D939B46637804F1010A0A90AE
:102630000AF1010AA3F12000582800F2B783DFE86D
:1026400010F04C03B503B5035403B503B503B5034C
:10265000B503B503B50359005903B5036600140269
:10266000B5032F02A503A503A503A503A503A50391
:10267000A503A503A503B503B503B503B503B503CA
:10268000B503B503B503B503B5038B02D302B50398
:10269000D302B503B503B503B5031B03B503B503F7
:1026A0002003B503B503B503B503B5033402B50381
:1026B000B5034B02B503B503B503B503B503B503C5
:1026C000B503B503B503B50376029E03D302D30267
:1026D000D30263039E03B503B5036803B503750313
:1026E000DD018C035E03B503F201B5038700B5037A
:1026F000B50332030F9C236818460D932346002828
:1027000003F104030F9304DA0D9B5B420D934BF02E
:10271000040B9AF800308BE725AA0B990C9804F06B
:102720000BFC40B9C8466FE7279B23B10C9825AA3C
:102730000B9904F001FC0B9B9B8913F0400F099B44
:1027400018BF4FF0FF330993099843B0BDE8F08FED
:102750001BF0200F119340F0AF810F9A1BF0100F68
:10276000134640F09A851BF0400F00F09685002537
:102770000123148804320F92002217468DF8772027
:102780000A994A1C00F010822BF08002079254EA4A
:10279000050240F00F82002940F03184002B40F008
:1027A00039851BF001030E9300F06286302342AEA0
:1027B00006F8413D0A9B0E9A9342B8BF1346089310
:1027C0000023129317B1089B01330893079B13F062
:1027D0000203109302D0089B02330893079B13F067
:1027E000840540F010830D9B089AA3EB020BBBF10C
:1027F000000F40F30883BBF1100F40F3B287279C12
:1028000043462146A8461027269A0C9C0B9D06E0BD
:10281000ABF1100BBBF1100F03F1080318DD01320F
:10282000AB481031072A2791269283E88100EFDD1B
:1028300025AA2946204604F07FFB00287FF47BAFC1
:10284000ABF1100BBBF1100F4B462799269AE6DC33
:1028500045460C46984601329D4B5C44072A279416
:10286000269288E8080800F3C3829DF8777008F183
:10287000080887B10121269B0C440B440DF1770217
:10288000072B27942693C8F80410C8F8002000F3FB
:10289000CD8308F10808109B7BB10221269B0C44D4
:1028A00001331EAA072B27942693C8F80410C8F8F2
:1028B000002000F3118408F10808802D00F0048343
:1028C0000A9B0E9A9F1A002F37DD102F40F379864E
:1028D000804D42462146B0464FF0100B2E46269BB7
:1028E0000C9C0B9D04E0103F102F02F1080215DD37
:1028F00001331031072B2791269382E84008F2DD3F
:1029000025AA2946204604F017FB00287FF413AFC0
:10291000103F102F4A462799269BE9DC35460C4686
:102920004646904601333C44072B2794269388E87B
:10293000A00000F3708308F10808079BDF0500F191
:102940006482269B0E9901330C44072B2794C8F808
:102950000060C8F80410269300F3B38308F1080858
:10296000079B5B073BD50D9B089A9D1A002D36DD12
:10297000102D40F321871026269B0C9FDDF82CB0EC
:1029800004E0103D102D08F1080816DD0133504A0F
:102990001034072B2794269388E84400F1DD25AAFC
:1029A0005946384604F0C8FA00287FF4C4AE103DFA
:1029B000102DC846279C269BE8DC0133444A2C4452
:1029C000072B2794269388E8240008DD25AA0B9975
:1029D0000C9804F0B1FA00287FF4ADAE279C099B57
:1029E0000D9A08998A42ACBF9B185B180993002C7A
:1029F00040F0FB820023C8462693E6E511931BF0C6
:102A0000200340F045811BF0100240F066841BF06B
:102A1000400300F062840F9913460A4604320C8882
:102A200000250F92A8E600250F9A119316688DF8DD
:102A30007750141D002E00F0CD860A9A531C00F02A
:102A40001B862946304603F061FC002800F00D8704
:102A5000831B0A950E930F94CDF81CB023EAE37301
:102A6000089312959DF87770ACE69AF800300AF159
:102A700001042A2B00F0C287A3F130000928A246E6
:102A800000F2188700231C461AF8013B04EB84046B
:102A900000EB4404A3F130000928F5D90A94C9E5F4
:102AA0004BF0800B9AF80030C2E54BF0100B1BF096
:102AB000200F11933FF451AE0F9C073424F007030D
:102AC00003F10802D3E900450F92012354E600BF49
:102AD000B4790800C47908001193002A40F0AD874A
:102AE000BE4B1BF0200F189340F0E7800F9A1BF0AD
:102AF000100F134640F0D8831BF0400F00F0D48332
:102B00000025043314880F931BF0010F00F0E380BD
:102B100054EA050300F0DF8030239DF844208DF84F
:102B200078308DF879204BF0020B022324E6012245
:102B30001193002311460F98089202681F468DF8E2
:102B400077300A931293031DCDF81CB00E918DF8C7
:102B5000A0200F9328AE39E61193002A40F0848715
:102B60004BF0100B1BF0200F40F075840F9A1BF0F8
:102B7000100F134640F09D831BF0400F00F0998327
:102B8000B2F900400433E5170F9322462B46002A82
:102B900073F10003C0F298830A999DF877704A1C7C
:102BA0004FF001037FF4F0AD54EA050200F02982F2
:102BB000CDF81CB0012B00F00E83022B40F09C825C
:102BC0004E461898230943EA0573290904F00F02B9
:102BD0000D461C46835C06F8013D54EA0503F1D11D
:102BE000A9EB06030E93E5E51193002A40F0388720
:102BF0000F9C1BF0080F04F1070400F0CF8424F0B1
:102C0000070303F108020F921A685B681592149388
:102C1000149B159D23F00044284621464FF0FF32B7
:102C20006F4B04F08BFC002840F03484284621468A
:102C30004FF0FF326A4B04F063FC002840F02A8416
:102C400015A80DC8149904F051FC002840F0D48553
:102C50009DF8777003231A4608930023614E1946A6
:102C60000A93614B0E92119A2BF0800007901291FB
:102C7000472AD8BF1E46A5E54BF0080B9AF800304E
:102C8000D6E44BF0100B11931BF020033FF4BBAEC6
:102C90000F9C073424F0070303F10802D3E9004531
:102CA0000F92002368E51193002A40F0C2864F4B33
:102CB0001BF0200F18933FF419AF0F9C1BF0010F6E
:102CC00004F1070424F0070303F108020F92D3E98B
:102CD00000457FF41DAF02234EE59AF8003000292D
:102CE0007FF4A6AC01222021A2E44BF0010B9AF85C
:102CF00000309DE49AF8003001222B2198E44BF03B
:102D0000200B9AF8003093E44BF0400B9AF8003017
:102D10008EE49AF800306C2B03BF9AF801304BF028
:102D2000200B0AF1010A4BF0100B81E4002A40F05D
:102D30007C861BF0200F40F052841BF0100F40F0F7
:102D400038841BF0400F00F034840F9A136804326B
:102D50000F92BDF824201A8037E4782330220F9890
:102D60008DF879301193031D0F93204B046818934D
:102D70004BF0020B8DF8782000250223FCE4119320
:102D8000002A3FF4EFAE8DF87710EBE60020044602
:102D9000A3F130001AF8013B04EB840400EB440477
:102DA000A3F130000928F5D90D9443E41193002ACA
:102DB00040F04A86119A002A3FF4B6AC0023012164
:102DC0001F4608918DF8A020CDF81CB08DF8773003
:102DD0000A9312930E9128AEF8E400BF80790800A0
:102DE000FFFFEF7F7479080070790800947908007C
:102DF00025AA0B990C9804F09FF800287FF49BAC4F
:102E0000C8469DF87770279C33E5119B652B40F3EE
:102E10009A8015A80DC8149904F05EFB002800F0F4
:102E200093810121269BB54A0B440C44072B279420
:102E30002693C8F80410C8F8002000F3C68308F1F0
:102E400008081F9B139A279C934203DB079BDD070F
:102E50007FF586AD269B199901331A9A0C44072BEE
:102E6000C8F80020C8F804102794269300F3C48300
:102E700008F10808139B5E1E002E7FF771AD102E1F
:102E800040F3758522461027269B9D4DDDF830B016
:102E90000B9C05E008F10808103E102E40F3258237
:102EA00001331032072B2792269388E8A000F1DD2A
:102EB00025AA2146584604F03FF800287FF43BAC91
:102EC000C846279A269BE7E70D9B089A9F1A002F72
:102ED0007FF7F6AC102F40F3A884894D4246214677
:102EE000B0464FF0100B2E46269B0C9C0B9D04E029
:102EF000103F102F02F1080215DD01331031072BAE
:102F00002791269382E84008F2DD25AA294620462B
:102F100004F012F800287FF40EAC103F102F4A4640
:102F20002799269BE9DC35460C46464690460133F8
:102F30003C44072B2794269388E8A00000F39E8248
:102F400008F10808BCE4139B012B40F34F820123D6
:102F5000269F1C441F44072F2794C8F8006026971B
:102F6000C8F8043000F35F8208F10808199A0137A5
:102F70001A9B1444072F27942697C8F80030C8F8E6
:102F8000042000F35C8208F1080815A80DC8149904
:102F900004F0A2FA139B002840F04181013B013765
:102FA00001361C44072FC8F8006026972794C8F8FC
:102FB000043000F3668108F108081B9A01371444B5
:102FC00021AB072F27942697C8F80420C8F80030B3
:102FD0007FF7C4AC25AA0B990C9803F0ADFF00282D
:102FE0007FF4A9ABC846279CBAE425AA0B990C9894
:102FF00003F0A2FF00283FF4FDACFFF79CBBDDF817
:103000001CB0012B00F07E81022B71D1CDF81CB0D9
:1030100000240025D4E525AA0B990C9803F08CFF19
:1030200000287FF488ABC846279C86E425AA0B9924
:103030000C9803F081FF00287FF47DABC846279CE5
:1030400029E40120269B2D4A03440444072B27949E
:103050002693C8F80400C8F8002040F3D88225AAB7
:103060000B990C9803F068FF00287FF464ABC84606
:103070001F99279C29B9139B1BB9079BD8077FF57C
:103080006FAC1998269B0246013322441A9C072BE9
:103090002792C8F80040C8F80400269300F3318452
:1030A00008F108080029C0F20984139901338C182B
:1030B000072B27942693C8F80060C8F804107FF700
:1030C0004DAC25AA0B990C9803F036FF00287FF42D
:1030D00032AB279CC84643E425AA0B990C9803F011
:1030E0002BFF00287FF427ABC846279CFFF7E5BBE2
:1030F00000240025CDF81CB0494604E0B079080052
:10310000C47908003146E20842EA4572E80804F052
:10311000070305461446303354EA050201F8013C22
:1031200001F1FF36EED1079AD2077FF559AD302B6A
:103130003FF456AD3023023906F8013CA9EB0103F8
:103140000E930E46FFF736BB1F9900297FF779AF24
:10315000129B139A9342A8BF1346002B1F460BDD08
:10316000269B3C440133072B279488E8C000269314
:1031700000F3FB8208F10808129B002FA8BFDB1B9D
:10318000002B1F4640F3D780102B40F33484BA4DF8
:1031900042462146B0464FF0100B2E46269B0C9C13
:1031A0000B9D04E00832103F102F40F3B58001332F
:1031B0001031072B2791269382E84008F2DD25AADB
:1031C0002946204603F0B8FE00287FF4B4AA4A46F8
:1031D0002799269BE7E7002D08BF0A2CC0F09080B6
:1031E0004E46204629460A22002304F0E5F93032F3
:1031F00006F8012D2046294600230A2204F0DCF9B6
:1032000004460D4654EA0503EBD1A9EB06030E93E1
:10321000FFF7D0BA0A9B4E460E93FFF7CBBA5E1E5D
:10322000002E7FF7CAAE102E40F3E38322464FF004
:10323000100B914D0C9C04E0103E102E08F1080874
:1032400015DD01371032072F2792269788E82008CE
:10325000F2DD25AA0B99204603F06EFE00287FF4CC
:103260006AAA103E102EC846279A269FE9DC14460B
:1032700001373444072F2794269788E860007FF7AA
:103280009AAE25AA0B990C9803F056FE00287FF4FD
:1032900052AA279C269FC8468FE604321C68002548
:1032A00001230F92FFF768BA1C6804330F930025BF
:1032B0002AE41C680433E51722460F932B46002AA4
:1032C00073F10003BFF668AC2D27644265EB45053A
:1032D0008DF877700123FFF753BA0F9900250A463E
:1032E00004320C680F92FFF747BA14460133344496
:1032F000072B2794269388E860007FF72FABE0E642
:10330000DDF81CB0012342AE3034CDF81CB006F815
:10331000414D0E93FFF74EBA35460C464646904651
:1033200001333C44072B2794269388E8A00000F340
:10333000468208F108081F9A139B9A4245DB079BB7
:10334000D90742D4139B12989A1A1D1A9542A8BF06
:103350001546002D0EDD2699064401312C4407291F
:10336000C8F800602794C8F80450269100F316822C
:1033700008F10808002DB4BF1646561B002E7FF733
:10338000EFAA102E40F3F38222461027269B3A4DD7
:10339000DDF830B00B9C04E008F10808103E102E58
:1033A000A3DD01331032072B2792269388E8A00073
:1033B000F2DD25AA2146584603F0BEFD00287FF421
:1033C000BAA9C846279A269BE8E7269B1998013395
:1033D0001A990444072B2794C8F80010C8F8040071
:1033E000269300F3CF8108F10808ABE7079BDA07C3
:1033F0003FF5ADAD0123269F1C441F44072F2794A2
:10340000C8F800602697C8F804307FF7D4AD25AA25
:103410000B990C9803F090FD00287FF48CA9C84606
:10342000279C269FC9E525AA0B990C9803F084FDDB
:1034300000287FF480A9C846279C269F96E525AAE8
:103440000B990C9803F078FD00287FF474A9C84606
:10345000279C269F99E50F9C073424F0070404F16C
:103460000801D4E900230F9114461D46FFF78FBBD6
:103470004E46FFF79FB900BFC479080025AA0B99F3
:103480000C9803F059FD00287FF455A9C846279CE5
:10349000FFF716BA159C22462046149C2346214667
:1034A00004F04CF8002840F073820A9B0133119B12
:1034B00023F020030E9300F09C81472B00F0D68070
:1034C0004BF480730793149B1F1E159B0893B7BF83
:1034D0003B46002303F100472D231093119B662BDD
:1034E00000F09081462B00F0A48002200E9B23A9BF
:1034F000452B0ABF0A9B0A9D5D1C8DE821000491A3
:1035000020A81FA93B460390089A02910C9801F04D
:1035100087FA119B0646672B40F0BA811BF0010F1A
:1035200000F023827419169A0898179B394603F005
:10353000D3FF002840F02481239BA34206D23021F0
:103540005A1C23921970239B9C42F9D89B1B1393FE
:103550000E9B472B00F0A280119B652B40F3A781A7
:10356000119B662B1F9B129300F07181139B129A83
:103570001946914200F35D811BF0010F40F0F0818C
:1035800022EAE273089367230E921193109B002B9B
:103590007DD10A939DF87770FFF714B924F00704E2
:1035A000236815936368149304F108030F93FFF7DE
:1035B0002FBB0F9A136804320F92099A1A60FFF713
:1035C00004B8269BAF4DFFF7ADB925AA0B990C980F
:1035D00003F0B2FC00287FF4AEA8C84631E40F9A8D
:1035E000134604330F93099B1168DD171A462B46C7
:1035F000C1E90023FEF7E9BF25AA0B990C9803F057
:103600009BFC00287FF497A8C846279C32E408F169
:1036100008082FE540210C98FEF77EFB0B9A1060FE
:103620001061002800F0148240230B9A5361FEF7CA
:10363000BCBF03200A9C23A98DE81100049120A897
:103640001FA90390089A3B4602910C9801F0E8F9F3
:1036500025460646119B7419462B7FF464AF3378D8
:10366000302B00F087811F9D2C445CE70A9B002BC8
:1036700008BF01230A9323E730460A95FEF750FF5F
:103680000F940E90CDF81CB00346FFF7E7B92D2735
:1036900000238DF877700A93FFF795B81F9B1A46A1
:1036A0001293033304DB0A9B19469142BFF65EAFC7
:1036B000119B023B1193129B9DF84420013B002B70
:1036C0008DF88420B4BF2D222B221F93B8BF129BEC
:1036D0008DF88520B8BFC3F10103092B40F31F818A
:1036E0000DF193000146684C00E0114684FB035243
:1036F000DD17C5EBA20505EB8502A3EB42023032D4
:10370000092D01F8012C2B4601F1FF32EDDC30339D
:103710000239DCB2884202F8014C40F292810DF18C
:103720008601134601E013F8014B834201F8014B77
:10373000F9D101339B1A0DF18602134421AA9B1A79
:10374000139A1B93012A13440E9340F348810E9B56
:10375000199A13440E9323EAE373089300231293F8
:1037600014E7279C269AFFF776B825AA0B990C98A0
:1037700003F0E2FB00287EF4DEAFC846279CFBE4A2
:103780002346E3E625AA0B990C9803F0D5FB002805
:103790007EF4D1AFC8461F9A279CD3E525AA0B9982
:1037A0000C9803F0C9FB00287EF4C5AF1F9A139B49
:1037B000C846279C9A1ADDE5269BFFF7FEB825AA86
:1037C0000B990C9803F0B8FB00287EF4B4AFC84600
:1037D000279CB0E50A9B3746062B28BF06230A968E
:1037E000129608930F94CDF81CB00E93274EFEF757
:1037F000E9BF06230A9363E62D231F468DF8773031
:10380000FFF728BA03200A9C23A98DE81100049130
:1038100020A81FA90390089A3B4602910C9801F03A
:10382000FFF825460646041919E7269B154DFFF7B4
:103830007EBB199A139B1344129A0E93002A40F3ED
:10384000C78023EAE3730893672311939EE6002B56
:1038500040F3E1800A9A002A40F0B0801BF0010F8B
:1038600040F0AC8008930E9390E60A9B0F94089367
:103870000E930A90CDF81CB012909DF87770FEF769
:10388000A1BF00BFC479080067666666A879080012
:10389000119B472B7FF446AE1BF0010F7FF4DAAE8D
:1038A000239B9B1B13930E9B472B3FF4F7AE1F9B51
:1038B000129300E700200A90FEF7BCBE4F42103181
:1038C00035DA10246A4DDDF830B004E008F108085C
:1038D000103F102F2CDD01331032072B2792269337
:1038E000C8F80050C8F80440F0DD25AA0B995846E6
:1038F00003F022FB00287EF41EAFC846279A269BC1
:10390000E6E725AA0B990C9803F016FB00287EF435
:1039100012AFC8461F99279A269BFFF7C3BB3022D8
:1039200013448DF887308DF8862022AB06E7504D82
:1039300001333A44072B88E8A0002792269308F128
:1039400008087FF7B2AB25AA0B990C9803F0F4FA9C
:1039500000287EF4F0AEC846279A269BFFF7A5BB49
:10396000129B199A13440E936BE7239BEEE5269B5B
:103970003F4DBBE4169A0898179B394603F0ACFDFF
:1039800000287FF470AEC5F101051F952C44CAE5EF
:10399000149B384E002BBEBF2D231F468DF8773069
:1039A0004FF003031A4608934FF00003A8BF9DF899
:1039B000777019460A93304BFFF754B9129B199A46
:1039C00013440A9A1A4422EAE2730E920893DDE540
:1039D000129B0E9AC3F101031A441346C3E71BF06E
:1039E000010312937FF4B3AE0E9B23EAE3730893B3
:1039F000CCE51F4D3CE4269B1D4D91E40F9D9AF8AC
:103A000001302868A24640EAE0700A902846043057
:103A10000F90FEF70DBE0A9B13B91BF0010F02D0E9
:103A2000199B0133CDE701231CE78DF87710FFF7D1
:103A300080B98DF87710FFF73AB98DF87710FFF756
:103A40004FB80DF1860379E68DF87710FFF7B2B91C
:103A50004FF0FF320C2309920C9A1360FEF774BEEC
:103A60008DF87710FFF7C4B88DF87710FFF778B8A6
:103A7000C47908007C790800787908002DE9F84FAE
:103A80004B6E93469C042FD59368126853B30E4631
:103A9000074602F1080919E920045FEA9A0817D0DD
:103AA0000024043D01E0A04510D0324655F8041F23
:103AB000384602F06DF8431C04F10104F3D10023F1
:103AC000CBF80830CBF80430BDE8F88FDBF80830CD
:103AD0002AF0030AA3EB0A03CBF8083009F108091E
:103AE000002BD8D10020EAE702F0BCF90023CBF884
:103AF0000830CBF80430BDE8F88F00BF2DE9F04F57
:103B0000ADB01D468B4690460793069018B1836B67
:103B1000002B00F0F380DBF86430BBF90C00DF070A
:103B200081B202D48E0540F1FC808C040AD4DBF80B
:103B3000643040F4005123F40053ABF80C10CBF880
:103B4000643089B2080740F1B380DBF81030002BF5
:103B500000F0AE8001F01A030A2B00F0B5800023BC
:103B60000DF1700AD1460B93039311931093CDF886
:103B70003CA0CDF810B098F800304446FBB1252B9E
:103B800002D11CE0252B03D014F8013F002BF9D102
:103B9000A4EB08059DB1109B119A01332A44072B11
:103BA000C9F80080C9F80450119210937ADD002AF8
:103BB00040F0B584D146039B10922B4403932378A5
:103BC000002B00F0E58300204FF0000304F1010812
:103BD0008DF8373062780646054603464FF0FF34CD
:103BE00008F10108A2F12001582900F2D982DFE88A
:103BF00011F02802D702D7023002D702D702D7022B
:103C0000D702D702D702A0008802D702A800B802C4
:103C1000D702A601AB01AB01AB01AB01AB01AB011C
:103C2000AB01AB01AB01D702D702D702D702D70253
:103C3000D702D702D702D702D702B901D702D702DB
:103C4000D702D702D702D702D702D702D702D702AC
:103C50009E01D702D702D702D702D702A201D7020C
:103C6000D7025A02D702D702D702D702D702D70209
:103C7000D702D702D702D70261022202D702D702A7
:103C8000D70276022202D702D7027B02D702FC01BA
:103C900089011002D202D7029502D702AD00D702E5
:103CA000D702350209F10809039B2B44039386E7E9
:103CB0005946069800F0AAFD18BBBBF80C1001F09D
:103CC0001A030A2B7FF44BAFBBF90E30002BFFF623
:103CD00046AFDBF86430DB0705D48F0503D4DBF88F
:103CE000580002F083FA2B4642465946069800F0E7
:103CF00049FD039003982DB0BDE8F08F01F0A6FEBA
:103D000009E7DBF86430D90704D4BBF80C309A0516
:103D100040F1AE844FF0FF33039303982DB0BDE81C
:103D2000F08FDBF8580002F05FFABBF90C0081B2AB
:103D3000FBE607990A460D680432002D079202DA65
:103D40006D4243F0040398F8002049E708959E0669
:103D500000F15A840799DD060A4600F1EF83580600
:103D600040F1EC83002701220E88043107914FF0C7
:103D7000000100258DF83710611C00F0178123F039
:103D80008001029156EA070140F01581002C40F0B5
:103D90005B83002A40F0B68313F00103059300F023
:103DA000558430230DF1B00B0BF8413D059BA34228
:103DB000B8BF234601930DB101330193029B13F069
:103DC0000203099302D0019B02330193029B13F07B
:103DD00084030A9340F01582089B019A9D1A002DD6
:103DE00040F30F82102D40F38484109BCE461027A1
:103DF000A146119AC54E1946069C07E001F1020C36
:103E000001460EF1080E103D102D11DD481C103238
:103E1000072811928EE8C0001090EFDD002A40F0D4
:103E2000D981103D102D11464FF0010CD646EDDC26
:103E30004C466146F1462A4407291192C9F80060B0
:103E4000C9F80450109100F3EB829DF8375009F146
:103E50000809481C002D40F0DC81099B002B00F074
:103E6000F68102210EAB0A44072811921090C9F87E
:103E70000410C9F8003040F3E681002A40F0958331
:103E80000A9B0120802B1146D14640F0E481089B1B
:103E9000019D5E1B002E40F3DE81102E40F33C841A
:103EA000CC461027A1469A4D069C07E001F1020E70
:103EB00001460CF1080C103E102E11DD481C10328A
:103EC000072811928CE8A0001090EFDD002A40F046
:103ED0009B82103E102E4FF0010E1146D446EDDCB1
:103EE0004C46E1463244BEF1070F119289E860006A
:103EF000CDF840E000F3668309F108090EF10100F6
:103F00007146A8E1089513F0200240F0898313F070
:103F1000100140F0198313F0400200F01583079858
:103F20000A46014604310688002707911FE70895D5
:103F300043F01003E7E7089543F0100307E743F069
:103F4000800398F800204BE60025A2F1300118F814
:103F5000012B05EB850501EB4505A2F1300109298F
:103F6000F5D93FE60895002840F0028443F010039D
:103F70009E0600F13D830799DD060A4600F1F082B6
:103F8000580640F1ED82B1F900600432F71730466F
:103F900039460792002871F10002C0F25A83611C71
:103FA0009DF837504FF001027FF4E9AE56EA070161
:103FB00000F04B820293012A00F08A82022A40F02C
:103FC0005A82D3460B98330943EA0773390906F03E
:103FD0000F020F461E46835C0BF8013D56EA0703AD
:103FE000F1D1AAEB0B030593E0E6002840F0BD8376
:103FF000990600F15983DA0600F1E5805B0640F18D
:10400000E280079A136804320792BDF80C201A80E8
:10401000B1E5782230210895079D8DF839202A1DB9
:1040200007923C4A2E680B9243F002038DF8381039
:10403000002702229BE60895002899D08DF837606A
:1040400096E798F80020002E7FF4CAAD01202026C4
:10405000C6E543F0010398F80020C1E50895002863
:1040600040F080832B490B919F0600F1E582079871
:10407000DE06014600F16F825D0640F16C8200278A
:10408000043106880791D80740F1208256EA0701DB
:1040900000F01C8230218DF8392043F002038DF8A6
:1040A0003810022263E60895002840F055831A492B
:1040B0000B91D9E7012207981146019202684FF04F
:1040C00000048DF848200246043208958DF83740E8
:1040D000059107920DF1480B029300246EE643F020
:1040E000400398F800207BE598F800206C2A03BF75
:1040F00098F8012043F0200308F1010843F0100371
:104100006EE598F8002001202B2669E5D479080097
:10411000E479080094790800807908004FF00002E3
:1041200007990895D1F800B08DF837200D1DBBF127
:10413000000F00F0E482671C00F0C38222460021D9
:104140005846019302F0E2F8019B002800F0E88253
:10415000A0EB0B020795059202939DF837500024BF
:1041600024E698F8002008F101072A2A00F0E982E5
:10417000A2F130010929B8464FF000043FF632ADF4
:1041800018F8012B04EB840401EB4404A2F1300184
:104190000929F5D926E543F0200398F800201FE50A
:1041A0000895002840F0DB82002A00F0F180012110
:1041B0008DF848204FF0000201918DF837200591CD
:1041C0000DF1480B88E7079A136804320792039AA7
:1041D0001A60D0E40FAA04992046FFF74FFC00288C
:1041E00040F043811099D646119A01F1010C0AE67C
:1041F0000FAA04990698FFF741FC002840F035818A
:10420000D14610999DF83750119A481C002D3FF463
:1042100024AE01210DF137050A44072811921090B0
:10422000C9F80410C9F8005040F30981002A40F091
:10423000AF81099B002B3FF423AE02220846D146F2
:104240000EAB1D921C93014609F1080901300A9B2F
:10425000802B3FF41CAE059BE41A002C2FDD102CA4
:1042600040F32082CE461026B24D069FDDF8109016
:1042700006E0881C19460EF1080E103C102C10DDCB
:104280004B1C1032072B11928EE860001093F0DD6A
:10429000002A65D1103C102C4FF001001146D64683
:1042A000EEDCF146224407281192C9F80050C9F803
:1042B0000440109000F3858009F108090130059948
:1042C00007280A441192C9F800B0C9F804101090E8
:1042D00040F38280002A40F01881029B1092580718
:1042E00035D5089B01995C1A002C40F3E780D14634
:1042F000102C40F30D82102510998F4E069FDDF88B
:1043000010B006E0881C194609F10809103C102C71
:1043100011DD4B1C1032072B1192C9F80060C9F84F
:1043200004501093EEDD42BB103C102C4FF0010006
:104330001146D146EDDC224407281192C9F80060ED
:10434000C9F80440109051DD002A40F09A81039B87
:10435000089A01998A42ACBF9B185B1803934EE000
:104360000FAA49463846FFF789FB002840F03E81F6
:104370001099D646119A481C7FE70FAA594638462D
:10438000FFF77CFB60B91099D146119A481CBDE734
:10439000119BDDF810B0002B40F0CA810023109370
:1043A000DBF8643013F0010FBBF80C3002D19A0532
:1043B00040F1DD805B063FF5ADAC03982DB0BDE864
:1043C000F08F002A40F005810123D146059ACDF8EF
:1043D00070B01D921192109309F10809029B5907C0
:1043E00004D5089B01995C1A002C81DC039B089979
:1043F00001988142ACBF5B181B18039372BB00236A
:10440000D1461093FFF7B7BB0FAA04992046FFF7D8
:1044100035FB50BB1099D446119A01F1010E4AE5C3
:10442000002A7FF4E5AE9DF83710002900F01A81CC
:104430000122D14610460DF137011D921C91014613
:1044400009F10809013008E5029B012A00F0978074
:10445000022A0DD1029300260027B2E50FAA049983
:104460000698FFF70BFB0028C9D0DDF810B097E7DE
:10447000002600270293514600E05946F20842EA1E
:104480004772F80806F0070307461646303356EA27
:10449000070201F8013C01F1FF3BEED1029AD60779
:1044A0007FF59FAD302B3FF49CAD302302390BF8E4
:1044B000013CAAEB010305938B4677E4039B089A22
:1044C0008A42ACBF9B185B18039398E702224EE424
:1044D000002F08BF0A2E51D3D346304639460A2250
:1044E000002303F069F830320BF8012D30463946CD
:1044F00000230A2203F060F806460F4656EA070337
:10450000EBD16EE50594D34650E40FAA04990698C2
:10451000FFF7B4FA0028A8D1D146119A5EE70FAA96
:1045200004990698FFF7AAFA00289ED1D146FFF712
:10453000BBBB00BFE4790800D479080004311668D9
:1045400000270122079112E4079800270146043151
:10455000066807910BE40E6804310791002792E585
:1045600016680432F71707923046394612E5DBF831
:10457000580001F03BFEBBF80C301BE7029B029396
:1045800001230DF1B00B30360BF8416D05930DE4AE
:104590000FAA04990698FFF771FA00287FF465AF17
:1045A0001099D146119A481C57E40FAA049906980D
:1045B000FFF764FA00287FF458AF1099D146119A9A
:1045C000481C44E6002A40F0878001201146D1466D
:1045D00041E60FAA04990698FFF750FA00287FF4E5
:1045E00044AF1098D146119A013068E6CB46D7E621
:1045F000079D073525F0070505F10802D5E90001FB
:10460000079206460F46C5E4079D073525F00702C9
:1046100002F10801D2E9006707910122FFF7A7BB69
:10462000079D073525F0070202F10801D2E900676E
:1046300007910022FFF79BBB079D073525F0070177
:1046400001F108000790D1E900671CE5D346FFF7A8
:10465000ADBB2D25764267EB47078DF83750012219
:10466000FFF78ABB099BB3B911460120D146F2E599
:10467000DBF8580001F0BAFD4FF0FF330393FFF76A
:104680004CBB0FAA04990698FFF7F8F900287FF4AD
:10469000ECAE119AAAE602220EAB1D921C930120E9
:1046A000D146D0E5344DFDE5079A13460433079310
:1046B000039B1168DD171A462B46C1E90023FFF75B
:1046C0005ABA584607950293FDF72AFF0024059031
:1046D0009DF83750FFF76ABB0FAA04990698FFF7B9
:1046E000CDF900287FF4C1AE1099D146119A481C2B
:1046F000B1E51099119A0131204EFFF79CBB062CB1
:1047000028BF0624079505940194DFF874B0E3E40C
:1047100010981A4E01300EE68646174DFFF7E2BBA1
:1047200005940795029304469DF83750FFF73EBB6A
:1047300006980FAA5946FFF7A1F900283FF42EAEBC
:104740002EE6079998F801200C68043144EAE474D5
:10475000B8460791FFF744BA8DF83760A7E48DF8A3
:10476000376021E58DF837607CE48DF837603FE4F1
:104770008DF83760FFF7FABBE4790800D4790800B8
:10478000A87908002DE9F0410C464FF0000E4FF4D7
:104790008065064617469846626EE3898989ADF5BD
:1047A0008D6D21F002011992ADF80E30E269636A55
:1047B000ADF80C1016A81AA9CDF818E007920993C5
:1047C000009104910295059501F00AFD43463A4691
:1047D00069463046FFF792F9051E07DB3046694609
:1047E00001F0DCF8002818BF4FF0FF35BDF80C30A1
:1047F0005B0603D5A38943F04003A381169801F01B
:10480000F1FC28460DF58D6DBDE8F08138B5304BD3
:10481000054618680C4610B1836B002B38D0B4F9EC
:104820000C2093B218070CD52069A8B113F001022F
:104830001ED000226369A2605B42A361F0B1002038
:1048400038BDD9063BD5580725D4206942F0080366
:10485000A3819BB20028E9D103F42072B2F5007F56
:10486000E4D02846214601F0F1FCA3892069DDE768
:10487000990758BF6269A2600028E0D1B4F90C30F2
:104880001A06DDD543F04003A3814FF0FF3038BD59
:1048900001F0DCF8C3E7216B51B104F14003994208
:1048A00004D0284601F0F8F9B4F90C200023236362
:1048B0000023206922F0240284E80900C6E70923C6
:1048C00042F040022B604FF0FF30A28138BD00BFA4
:1048D00040010720024B13B1024800F005B87047B1
:1048E00000000000C55A0800002301461A46184679
:1048F00002F044BC2DE9F04F03690F6983B09F4279
:1049000000F38880013F01F1140600F1140A56F803
:1049100027305AF827200133B2FBF3F8BB0000938D
:1049200006EB030953440193B8F1000F3BD0002379
:10493000B4461C46D6465CF8042BDEF800501FFA3D
:1049400082FB08FB0B33120C4FEA134B08FB02BB34
:104950009AB2A21AABB21FFA8BF41A44C4EB1544F4
:1049600004EB224492B242EA0442E1454EF8042BA1
:104970004FEA24444FEA1B43DDD2009B5AF8033030
:104980008BB9019C231F9A450CD254F8043C4BB9B7
:10499000A4F1080302E01A68043B1AB99A4507F12A
:1049A000FF37F8D30761044601F0CEFF00282DDB66
:1049B0005546002308F1010856F8041B28688AB2FE
:1049C0009A1A0B0C81B20A44C3EB104303EB224347
:1049D00092B242EA0342B14545F8042B4FEA234321
:1049E000EAD25AF827200AEB87037AB91A1F9245B0
:1049F0000BD253F8042C42B9083B02E01A68043B7E
:104A00001AB99A4507F1FF37F8D32761404603B03A
:104A1000BDE8F08F002003B0BDE8F08F000000007B
:104A20002DE9F04F056C9BB0044692469B46279EAD
:104A30004DB10123426C29469340AB606A6001F09E
:104A4000ABFD00232364BBF1000F5D4635DB002383
:104A500033609D4BAB4315D000220023504659468E
:104A600002F03AFD804600282DD00123269A1360DB
:104A7000289B002B00F0BD809448186001381BB0C3
:104A8000BDE8F08F42F20F73269A1360BAF1000F5F
:104A90000DD1C5F3130555B9289B8D48002BEED0D9
:104AA00000F10803289A13601BB0BDE8F08F289B23
:104AB0008848002BE3D0C31CF4E701232BF000450A
:104AC0003360AB46C5E718AA19AB01920093524672
:104AD0005B46204601F0E2FF2B0D814671D0504627
:104AE000CBF3130242F07F51189FA3F2FF36CDF8AB
:104AF000508041F440110022774BFCF77FFA6CA301
:104B0000D3E90023FCF72EFC6BA3D3E90023FCF7C9
:104B100077FACDE902013046FCF7BEFB68A3D3E982
:104B20000023FCF71FFC02460B46DDE90201FCF7FF
:104B300067FACDE9040102F017FD0022029000237C
:104B4000DDE9040102F0D2FC002840F06D81029DF5
:104B5000162D00F257816149524601EBC5015B46B3
:104B6000D1E9000102F0E0FC002800F0BE816B1EDC
:104B7000029300230E93BF1B7B1E089300F14E810E
:104B800000230A93029B002BC0F23F81089A0D93E9
:104B900011461944002308910C93249B092B2AD811
:104BA000052B40F358860025043B2493249B023BAD
:104BB000032B00F23F86DFE813F0CE03C302D903D4
:104BC0005B04189F199E3E4406F23243202B40F3AB
:104BD0008781C3F1400306F212409D402AFA00F09B
:104BE0002843FCF749FB0123013E1493A1F1F8711E
:104BF00081E73B4843E7002120466164259101F0AD
:104C0000A5FC4FF0FF3307930F930123259A0490DF
:104C1000206424920B93199B002BC0F2D380029A3C
:104C20000E2A00F3CF802D4B03EBC203D3E9002300
:104C3000CDE90823259B002BC0F2B483DDE908569B
:104C400050462A4633465946FCF7B6FC02F08CFC27
:104C50008046FCF721FB2A463346FCF783FB0246DD
:104C60000B4650465946FCF7C9F9079E049F08F1C8
:104C70003005012E3D7002460B4607F1010564D058
:104C80000022184BFCF76EFB0022002306460F465D
:104C900002F022FC002840F08280CDF828904FF0EE
:104CA000000ADDE908894FF0000B0B9429E000BFF2
:104CB00061436F63A787D23FB3C8608B288AC63F22
:104CC000FB799F501344D33F0000F07FB179080077
:104CD000F4790800007A08000000F83F407A0800E4
:104CE000B0790800000024400022814BFCF73AFB19
:104CF00052465B4606460F4602F0EEFB002840F0A7
:104D0000BA8342464B4630463946FCF755FC02F022
:104D10002BFC0446FCF7C0FA42464B46FCF722FB4C
:104D200002460B4630463946FCF768F904F1300676
:104D300005F8016B049E079FAE1BBE4202460B4660
:104D4000D2D1A046DDF828900B9C10461946FCF7FE
:104D500057F906460F4602460B46DDE9080102F008
:104D6000C5FB48B9DDE9080132463B4602F0B4FB19
:104D7000A8B118F0010F12D015F8018C6B1E049A1F
:104D800004E09A4200F0028413F8018DB8F1390F63
:104D900003F10105F5D008F1010883F800804946C8
:104DA000204601F0F9FB0022029B2A70269A01336B
:104DB0001360289B002B00F09F8304981D601BB09C
:104DC000BDE8F08F0B9A002A3ED0249A012A40F3C6
:104DD0001183079B0C9A5F1EBA42C0F29083D71BC7
:104DE000079B002BC0F28C840A9D079B0A9A012125
:104DF0001A440A92089A20461A44089201F068FC64
:104E0000064623E001230E93B5E600230A9A0D938C
:104E1000029BD21A5B420A920C93BEE6C7F10103D1
:104E20000A9300230893ADE6029D2846FCF734FA66
:104E300002460B46DDE9040102F04EFB00287FF438
:104E400086AE6B1E029382E60AADE0CD002D0CDD2E
:104E5000089900290B4608DDA942A8BF2B460A9AEB
:104E6000ED1AD21ACB1A0A9208930C9BD3B10B9B62
:104E7000002B00F0B882002F10DD31463A46204664
:104E800001F0C2FC4A4601460646204601F02AFCD3
:104E9000034649462046994601F07EFB0C9BDA1BEF
:104EA00040F0A2820121204601F012FC0D9B8046B9
:104EB000002B1FDD01461A46204601F0A5FC249B6D
:104EC0008046012B40F3558200230C93D8F8103014
:104ED00008EB8303186901F0ABFBC0F1200013E07D
:104EE000C3F120050AFA05F07BE60E9043E600BF09
:104EF00000002440249B012B40F3858200230C9367
:104F00000D9B0120002BE1D1089A104410F01F00E6
:104F100000F0A180C0F12003042B40F386840A9B9B
:104F2000C0F11C0003440A9313460344054408934C
:104F30000A9B002B05DD49461A46204601F0B4FCC9
:104F40008146089B002B05DD41461A46204601F0AC
:104F5000ABFC80460E9B002B40F08680079B002B0D
:104F600040F364820B9B002B00F09880002D05DD40
:104F700031462A46204601F097FC06460C9B002B42
:104F800040F036830896079B049A013BD3180B9395
:104F900017460AF00103C246DDF820B00C935146D3
:104FA0004846FFF7A7FC31460546484601F0CCFCD1
:104FB0005A4607905146204601F0E2FCC2688046FE
:104FC00005F13003002A40F02982014648460A9341
:104FD00001F0BAFC41460890204601F0DDFA089A3B
:104FE0000A9B32B9249921B90C9A002A00F0EE8369
:104FF000249A07990029C0F29F8205D1249919B9F2
:105000000C99002900F09882002A00F305830B9A7E
:1050100007F1010897423B70454600F00B83494673
:1050200000230A22204601F0C1FA5E45814631463E
:105030004FF000034FF00A02204600F0E98101F032
:10504000B5FA5946064600230A22204601F0AEFA78
:1050500047468346A3E71C200A9B054403440A9362
:10506000089B0344089363E74146484601F06CFC03
:105070000028BFF673AF029F494600230A2220464C
:10508000013F029701F092FA0B9B8146002B40F002
:10509000B5830F9B002B40F3BE830793DDF810A070
:1050A000079F554606E0494600230A22204601F0A4
:1050B0007DFA814641464846FFF71CFC303005F832
:1050C000010BA5EB0A03BB42EDDB049B079A82466A
:1050D000012AACBF9B1801334FF0000B1D46494617
:1050E0000122204601F0E0FB4146814601F02CFC04
:1050F000002840F33F8215F8012C6B1E049904E050
:105100008B4200F0AE8113F8012D392A03F101051D
:10511000F6D001321A704146204601F03DFA002EC9
:105120003FF43DAEBBF1000F05D0B34503D0594667
:10513000204601F031FA3146204601F02DFA2EE6E4
:1051400000230B93029B259A13440F930133012BE9
:105150001F461E46B8BF012707930021172F616421
:105160000AD9012204235B0003F11400874211468F
:1051700002F10102F7D26164204601F0E7F90E2E38
:10518000049020643FF647AD002D3FF444AD0299F2
:10519000CDE910AB002940F30382B94B01F00F02B7
:1051A0000D1103EBC203E906D3E9006740F1AF81BB
:1051B000B44B5046D3E908235946FCF7FDF94FF0AC
:1051C000030ACDE9120105F00F058DB1DFF8B482B5
:1051D000EA0709D5D8E9002330463946FCF7C2F87A
:1051E00006460F460AF1010A6D1008F10808EFD1D2
:1051F0003B46DDE912013246FCF7DEF907468846F8
:105200000E9B43B10022A04B3846414602F06EF996
:10521000002840F087825046FCF73EF83A46434665
:10522000FCF7A0F8994B0022FBF7EAFE079B054626
:10523000A1F15076002B00F03F81029B1593079B54
:1052400012930B9B002B00F0FB81129A8C4B0020D9
:1052500003EBC20353E902238D49FCF7ADF92A465B
:105260003346FBF7CBFE82468B463846414602F07A
:105270007BF90546FCF710F802460B4638464146D6
:10528000FBF7BCFE30355FFA85F8049D06460F46F5
:1052900085F8008002460B4650465946013502F01B
:1052A00043F9002854D132463B4600207649FBF7AB
:1052B000A5FE02460B465046594602F035F9002835
:1052C00040F07082129A012A00F01281129B049A17
:1052D000CDF84890134499460FE032463B460020F3
:1052E0006949FBF78BFE52465B4602F0FFF8002847
:1052F00040F056824D4500F0F98050465946002254
:10530000644BFCF72FF80022624B82468B463046F6
:105310003946FCF727F80F46064602F025F9804685
:10532000FBF7BAFF02460B4630463946FBF766FEEE
:1053300008F130085FFA88F805F8018B52465B46A1
:1053400006460F4602F0D2F80028C6D0DDF8489095
:10535000159B029323E500230B93259B002B40F321
:10536000DD801F461E460F930793F6E601230B933D
:10537000F3E7BAF1000F7FF4A7ADCBF31303002BD3
:105380007FF4BCAD2BF000473F0D3F05002F00F030
:105390000D820A9B01330A93089B01330893012372
:1053A0000C93ADE5079B002B3FF748AC40F0228201
:1053B000DDE908010022384BFBF7D4FF52465B467B
:1053C00002F0A8F8DDF81C804646002841D0259B55
:1053D000049DDB4302934146204601F0DDF8002E98
:1053E0003FF4DDACA7E60C9A4946204601F00CFAE2
:1053F000814657E5149A002A00F0888103F233436E
:105400000C9F0A9DF2E4BAF1000F7FF477ADB4E788
:1054100001F0CCF8474606468346C0E501462046E3
:10542000089301F0B9F80122089BE2E5249B022BC6
:105430007FF798AD079B002BC9D141460522204636
:1054400001F0B4F801468046484601F07DFA002894
:10545000BDDD3123029A0499013202920B704D1C7A
:10546000B9E73123029A01320292049A137052E68C
:1054700001230B9366E6DDF828900B9C8FE400BFB8
:10548000407A0800187A08000000F03F00001C4035
:105490000000E03F00002440000014405046FBF7AD
:1054A000FBFE3A464346FBF75DFF0022C14BFBF78C
:1054B000A7FD0546A1F1507641460022BE4B384675
:1054C000FBF79CFD2A46334682468B4602F02CF8B9
:1054D0008046002840F010812A4606F100435046DD
:1054E000594602F003F818B1464670E7DDF84890D7
:1054F000DDE910ABFFF78FBB0498FFF7C0BA0C9B38
:105500000D9AFB1A1A440C970D92002768E4DDE906
:1055100010234FF0020ACDE9122356E600210123A1
:1055200020466164259301F011F8259B04900793B0
:10553000259B20640F9327E6002AD046CDF820B0A3
:105540009A4611DD49460122204601F0ADF9414657
:10555000814601F0F9F9002840F34581BAF1390F8D
:1055600000F0058105F1310AB34687F800A07D1CE3
:10557000089ED0E504D11AF0010F01D0BBE5154615
:1055800015F8013C6A1E302BF9D0C4E5302204998D
:105590000A70029A15F8018C01320292FFF7FBBBE8
:1055A00000F0BB80DDE91001029B4FF0020A5D4272
:1055B000824B05F00F0203EBC203D3E90023FBF794
:1055C000D1FE2D11074688463FF41AAE7C4EEB07FC
:1055D00009D5D6E9002338464146FBF7C3FE074606
:1055E00088460AF1010A6D1006F10806EFD107E6B8
:1055F0007168204600F0AAFF0546336906F10C01E8
:1056000002339A000C3000F0C7FE294601222046E2
:1056100001F04AF90890B6E4392BCDF820B0D04615
:1056200000F0A58003F1010AB34687F800A07D1CB5
:10563000089E70E55A46D046B3469A4616464EE551
:1056400012985E492A4601EBC001334651E9020136
:10565000FBF788FECDE916013846414601F084FF8C
:105660000546FBF719FE02460B4638464146FBF756
:10567000C5FC06461298049A3035012815700F466D
:1056800002F1010526D0129B049ACDF848901344EC
:105690004FF0000A9946DFF830B152465B4630467B
:1056A0003946FBF75FFE0F46064601F05DFF804678
:1056B000FBF7F2FD02460B4630463946FBF79EFCEF
:1056C00008F1300805F8018B4D4506460F46E4D138
:1056D000DDF848900022DDE916013A4BFBF790FC1B
:1056E00032463B4601F002FF002846D0159B02934C
:1056F00015F8018CFFF742BB4FF000084646A8E6BC
:105700000A9B079A9D1A0023FFF770BB189B0C9FFA
:10571000C3F136030A9DFFF769BBDDE910784FF04E
:10572000020A6DE5079B002B3FF4B8AE0F9B002BE0
:105730007FF7DEAE0022244B38464146FBF712FECF
:10574000074688460AF10100FBF7A6FD3A464346A4
:10575000FBF708FE0022174BFBF752FC029A0F9B47
:10576000013A05461592A1F15076129369E5392266
:10577000B3463A70089E7D1CBFE4DDE91623002085
:105780001049FBF73BFC32463B4601F0CDFE08B921
:10579000AEE6154615F8013C6A1E302BF9D0D7E568
:1057A000DDF84890159B0293FFF7E8BA0C97FFF7D6
:1057B000A7BB00BF00001C4000001440407A080056
:1057C000187A08000000E03F00002440392BCDF893
:1057D00020B0D046DDF81CB09A46C8D0BBF1000F0F
:1057E0003FF7C0AEC0E67FF4BFAE1AF0010F3FF442
:1057F000BBAEB3E64FF000084646E8E5314600236D
:105800000A22204600F0D2FE0F9B0646002B07DD41
:105810000793FFF7ABBB249B022B1FDC0F9B3CE4E1
:10582000249B022B1ADC0F9BF2E73FF481ABC0F103
:105830003C0011E4002520466564294600F086FE00
:105840004FF0FF3307930F930123049025952064B5
:105850000B93FFF7E0B90125FFF7A8B90F9B07935A
:10586000E8E500BFB1F90C302DE9F0419AB20D46E0
:10587000110780463AD46A6843F40063002AAB817A
:1058800070DDAC6A002C4AD000229BB2D8F80060D0
:10589000C8F8002013F4805268D02A6D5F0705D540
:1058A00069682B6B521A0BB1EB6BD21A0023E969B2
:1058B0004046A047441C3DD00021B5F90C302A6970
:1058C00023F40063AB81DB0469602A6048D4296B50
:1058D000C8F8006019B305F14003994202D0404670
:1058E00000F0DAF900202863BDE8F0812E69B6B136
:1058F000910718BF00232C6808BF6B692E60A41B9A
:10590000AB600AE0234632466F6AE9694046B84711
:105910000028A4EB0004064404DD002CF2DC002087
:10592000BDE8F081AB894FF0FF3043F04003AB811D
:10593000BDE8F081D8F800401D2CF3D8164BE340A9
:10594000DB4313F00103EDD1B5F90C20296922F4F2
:105950000062AA81D2046B602960B8D5002CB6D150
:105960002865B4E7EA6B002A8BDCD8E70123E969F4
:105970004046A047431C024602D0AB89AC6A8DE783
:10598000D8F80030002BF8D01D2B01D0162BC9D130
:10599000C8F80060C3E700BF0100402038B50D46DD
:1059A000044608B1836BBBB1B5F90C0088B16B6ECE
:1059B000DB0701D4810517D520462946FFF752FFA2
:1059C0006B6E0446DA0702D4AB899B0507D52046E7
:1059D00038BD0446204638BD00F038F8E4E7A86D2D
:1059E00000F004FC204638BDA86D00F0FDFBE3E7A5
:1059F000014900F0B1BB00BFC5720800002310B51B
:105A000004468181C2810360436083604366036111
:105A100043618361194608225C30FCF71FFC07488C
:105A20000749084A084B2062E4616162A262E362AE
:105A300004F15800BDE8104000F0D2BBB16E080080
:105A4000D56E0800116F0800316F080010B50446CC
:105A5000144800F0C9FBA26BFAB90320124904F5FF
:105A60003B73C4F8E832C4F8E022C4F8E402E1630E
:105A700060680421FFF7C2FFA06801220921FFF737
:105A8000BDFFE06802221221FFF7B8FF012305489D
:105A9000A363BDE8104000F0A9BB0248BDE8104078
:105AA00000F0A4BB780C0720F1590800014800F071
:105AB0009BBB00BF8C0C0720014800F097BB00BFC8
:105AC0008C0C072038B50A4C0A4D641BA4100AD070
:105AD00004F18043013B05EB8305013C55F8043993
